:10006E00BBDBBEBBB5E7D7D3007777772E484C4DB9
:10007E0043552E636F6D00484C2D31D1A7CFB0B0D4
:10008E00E52000CAC7C4FAD7EEBAC3B5C4D1A1D40D
:05009E00F1A3A1200008
:0400C9007F057E0031
:0A00CD00EF1FAC0670011E4C60121C
:1000D700E4F50EE50EC394FA50EC00000000050E9F
:0200E70080F1A6
:0100E90022F4
:10014000C290D291D2A500000000E580339200C297
:03015000A5A20065
:010153002289
:10010A0012014040FBC290C291C2A500008F80003C
:0C011A00000000D2A500000000C2A522D9
:1001260012014040FBD290C291C2A58F8000000010
:0A01360000D2A500000000C2A522BF
:1000A300D2927F3412010A1200C97F3012010A1260
:1000B30000C97F0C12010A1200C97F0112010A7FD5
:0600C300057E000200CDE5
:100003007F0A7E001200CDC2A6C2A71200A3E4FDA0
:10001300FF1200EAE4FEEE90006E93FF6006120109
:10002300260E80F2E4FD7F011200EAE4FEEE90006A
:100033007793FF60061201260E80F2E4FD7F021221
:1000430000EAE4FEEE90008593FF60061201260E9F
:1000530080F2E4FD7F031200EAE4FEEE9000919348
:0B006300FF60061201260E80F280FEF6
:10015400AD071FED600BE4FEEEC3940D50F20E806C
:01016400F7A3
:010165002277
:1000EA00EF70047F808013BF01047F90800CBF02F1
:1000FA00047F888005BF03027F98EF2DFF02010A63
:0300000002016694
:0C016600787FE4F6D8FD758120020003CC
:00000001FF
