:1003B300045A0000000012082020202057656C63B7
:1003C3006F6D6520746F20202000121B202077772B
:1003D300772E686A6D63752E636F6D202000112D73
:1003E30054686572652773206E6F206563686F2E8E
:1003F30000123E20207777772E686A6D63752E632F
:100403006F6D2020000A5044697374616E63653A0E
:0104130000E8
:0F048D00C2A57F0A7E0012049CD2A57F0A7E00C2
:10049C00D3EF9400EE940040147D0A7C00ED1D70A7
:0D04AC00011CED4C70F7EF1F70E61E80E3A1
:0104B9002220
:0A058D008F80C29012048DC2A522D7
:030574002430FF31
:0A0577008F80D29012048DC2A522DD
:10045900C2A6C2A77F3812058D7F147E0012049CA4
:100469007F0F12058D7F147E0012049C7F061205F2
:100479008D7F147E0012049C7F0112058D7F147EEE
:040489000002049CCD
:1004FF00E4FDFCC3ED9FEC9E5015E4FBFA0BBB0033
:0F050F00010AEB64034A70F50DBD00010C80E496
:01051E0022BA
:02051F008F5EED
:10052100E4F9E9C3955E5011C2A37FE87E0312048A
:09053100FFD2A31204FF0980E9C6
:01053A00229E
:10053B00EF1FAA0670011ED39400EA9400400BE44F
:0A054B00FDEDC3947D50E90D80F72B
:010555002283
:0E056600758901758A66758CFCD2A9D2AF2208
:10055600D295D2B2E4F51AF55DF55CF55BF55A2253
:1004DD00ED2480FF12058DE4F55E12000EFF12056E
:1004ED0077740129F9E43AFA055EE55EC39410408C
:0104FD00E915
:0104FE0022DB
:06026D008D5EAB07AA063E
:100273007C037DE81200398F5F7C007D64AF03AEA1
:10028300021200397C007D0A1200398D607C007DEA
:100293000AAF03AE021200397C007D0A1200398DC9
:1002A30061AE02AF037C007D0A120039AB05E55E47
:1002B3002480FF12058DE55F120574E56012057455
:1002C300E5612430FF1205777F2E120577EB24308A
:0E02D300FF1205777F631205777F6D020577B6
:0C058100D2957F017E0012053BC295223E
:1002E100D28C20B2FDC28CAD8AAF8CEFFE7C00E4D3
:1002F1002DFFEC3EAB07FA749A2BFB74033AFAAF6D
:100301001A7E007C037DE8120027EF2BFFEE3AFEF8
:10031100E48F5D8E5CF55BF55A758A66758CFC7FA2
:100321001EFE12053BE47FA77E0DFDFCAB5DAA5CC2
:10033100A95BA85A12006FE47B207A4EF9F81204E7
:09034100158F5D8E5C8D5B8C5AFA
:01034A002290
:10034B00C2911204591205661205567F0212051F3F
:10035B007B007A007908E4FD1204DD7A00791B7DBD
:10036B00401204DD7F307E751204FF7B007A00792A
:10037B003EE4FD1204DD7A00792D7D401204DD127E
:10038B00058130B2FD1202E17B007A0079507D408D
:10039B001204DDAE5CAF5D7D4912026D1205567F16
:0803AB00647E0012053B80D7BF
:03000B000204BA32
:1004BA00C0E0C0D0C28D758A66758CFC051AE51A33
:1004CA00B4120BC28C758A66758CFC751A00D0D072
:0304DA00D0E0323D
:030000000201E119
:0C01E100787FE4F6D8FD758161020228E9
:10000E00BB010689828A83E0225002E722BBFE02F0
:09001E00E32289828A83E4932223
:10002700EF8DF0A4A8F0CF8CF0A428CE8DF0A42EED
:02003700FE22A7
:10003900C2D5EC30E709B2D5E4C39DFDE49CFCEEE2
:1000490030E715B2D5E4C39FFFE49EFE1200BEC39C
:10005900E49DFDE49CFC80031200BE30D507C3E497
:060069009FFFE49EFE2251
:10006F00E88FF0A4CC8BF0A42CFCE98EF0A42CFC30
:10007F008AF0EDA42CFCEA8EF0A4CDA8F08BF0A4AE
:10008F002DCC3825F0FDE98FF0A42CCD35F0FCEB0D
:10009F008EF0A4FEA9F0EB8FF0A4CFC5F02ECD39D2
:0F00AF00FEE43CFCEAA42DCE35F0FDE43CFC223F
:10041500C2D5E830E70FB2D5E4C39BFBE49AFAE412
:1004250099F9E498F8EC30E717B2D512044B1201AC
:100435004FE4C39BFBE49AFAE499F9E498F8800346
:1004450012014F30D50DE4C39FFFE49EFEE49DFDF0
:04045500E49CFC2205
:1001ED0002034BE493A3F8E493A34003F68001F2DA
:1001FD0008DFF48029E493A3F85407240CC8C33313
:10020D00C4540F4420C8834004F456800146F6DFE1
:10021D00E4800B01020408102040809003B3E47EBB
:10022D00019360BCA3FF543F30E509541FFEE493D6
:10023D00A360010ECF54C025E060A840B8E493A39D
:10024D00FAE493A3F8E493A3C8C582C8CAC583CAC8
:10025D00F0A3C8C582C8CAC583CADFE9DEE780BE80
:0104140000E7
:1000BE00BC000BBE0029EF8DF084FFADF022E4CC26
:1000CE00F875F008EF2FFFEE33FEEC33FCEE9DECEF
:1000DE00984005FCEE9DFE0FD5F0E9E4CEFD22ED35
:1000EE00F8F5F0EE8420D21CFEADF075F008EF2F7F
:1000FE00FFED33FD4007985006D5F0F222C398FD70
:05010E000FD5F0EA220C
:1001130075F008758200EF2FFFEE33FECD33CDCCA3
:1001230033CCC58233C5829BED9AEC99E582984026
:100133000CF582EE9BFEED9AFDEC99FC0FD5F0D603
:10014300E4CEFBE4CDFAE4CCF9A88222B800C1B92D
:100153000059BA002DEC8BF084CFCECDFCE5F0CB6B
:10016300F97818EF2FFFEE33FEED33FDEC33FCEBA4
:1001730033FB10D703994004EB99FB0FD8E5E4F95F
:10018300FA227818EF2FFFEE33FEED33FDEC33FC4C
:10019300C933C910D7059BE99A4007EC9BFCE99A40
:1001A300F90FD8E0E4C9FAE4CCFB2275F010EF2F85
:1001B300FFEE33FEED33FDCC33CCC833C810D70785
:1001C3009BEC9AE899400AED9BFDEC9AFCE899F8C0
:0E01D3000FD5F0DAE4CDFBE4CCFAE4C8F92253
:00000001FF
