:100210002020323030382D382D3138204D4F4E00CF
:0D0220002020202030303A30303A303000BD
:1001BB00C2A58F807F057E001201CCD2A57F057E64
:0101CB000033
:1001CC00D3EF9400EE940040147D6E7C00ED1D7016
:0D01DC00011CED4C70F7EF1F70E61E80E374
:0101E90022F3
:09022D00AD087F0A1201EE7FCA40
:08023600C2901201BBC2A52217
:08000300D2901201BBC2A5223C
:10016100C2A6C2A7C2A5C2917F381202367F0C1265
:1001710002367F061202367F011202367F8012029A
:1001810036E4FBEB90021093FF1200031201C80B3F
:10019100BB0FF07FC0120236E4FBEB90022093FF0D
:1001A1001200031201C80BBB0CF0758901758C3C60
:0901B100758AB0D2AFD2A9D28C3C
:0101BA002222
:0401EA00AD0A7F07D4
:1001EE00ED75F00A84FBED75F00A84AAF0EF24C0D9
:1001FE00FF120236EB2430FF120003EA2430FF0216
:02020E000003EB
:10000E00C2B720B03F1201C820B016050C30B0FDAB
:10001E00E50CB4010CC28C7FCA1202367F0F12029D
:10002E0036E50CB402057FC7120236E50CB40305A3
:10003E007FC4120236E50CB4040AE4F50C7F0C12F0
:10004E000236D28CE50C70030200F920B14D12017C
:10005E00C820B14730B1FDE50CB4010D0508E50827
:10006E00B43C03E4F50812022DE50CB40212050AA5
:10007E00E50AB43C03E4F50A1201EA7FC712023620
:10008E00E50CB40316050BE50BB41803E4F50BAD44
:10009E000B7F041201EE7FC412023620B24D120104
:1000AE00C820B24730B2FDE50CB4010D1508E508C5
:1000BE00B4FF0375083B12022DE50CB40212150AAB
:1000CE00E50AB4FF03750A3B1201EA7FC712023636
:1000DE00E50CB40316150BE50BB4FF03750B17AD4A
:0C00EE000B7F041201EE7FC412023622C8
:08024A0012016112000E80FB9D
:03000B000200FAF6
:1000FA00C0E0C0F0C0D075D000C002C003C004C0C8
:10010A0005C006C007758C3C758AB00509E5096407
:10011A00127031F5090508E508643C7020F50805F8
:10012A000AE50AB43C14750A00050BE50BB418037A
:10013A00750B00AD0B7F041201EE1201EAAD087FC8
:10014A000A1201EED007D006D005D004D003D0029F
:07015A00D0D0D0F0D0E0325C
:0300000002023EBB
:0C023E00787FE4F6D8FD75810C02024ABE
:00000001FF
