:1002040008320A0A0A0A0A0A0A0A082A000000002E
:1002140000000000083B0000000000000000C100D6
:10024800E529701675290112013B8F28E5266528D6
:0B0258005528F525852826852627223D
:10022B00E52245217016F521752201E52775F00AA7
:0D023B008485F039E52775F00A84F5382236
:0C029C003000047F0180027F008F2A22C6
:10026300538E7F5389F0758A18758CFCC28DD28C9E
:05027300D2A9D2AF2268
:03000B0002000EE2
:10000E00C0E0C0F0C083C082C0D075D000C000C0B8
:10001E0001C002C003C004C005C006C0070529E523
:10002E0029B40A037529000522E52270020521FF75
:10003E00AE21BE0109BFF406752100752200053AF6
:10004E00E53AB40803753A000524E5247002052349
:10005E00FFAE23BE030BBFE808752300752400B264
:10006E00007432253AF8E6FD7C00743B253AF8E63A
:10007E00FB7A00AF3A1201D9742A253AF8E6FD7CD4
:10008E0000AF3A1201A9D007D006D005D004D00394
:10009E00D002D001D000D0D0D082D083D0F0D0E02A
:0100AE00321F
:0100030022DA
:10028B0012000312026312024812022B12029C800C
:01029B00F56D
:10013B00E4FFC2B0D2B1D2B2D2B320B5027F01205C
:10014B00B6027F0220B7027F03D2B0C2B1D2B2D2C5
:10015B00B320B4027F0420B5027F0520B6027F06D0
:10016B0020B7027F07D2B0D2B1C2B2D2B320B40251
:10017B007F0820B5027F0920B6027F0A20B7027FD5
:10018B000BD2B0D2B1D2B2C2B320B4027F0C20B525
:0D019B00027F0D20B6027F0E20B7027F0FFD
:0101A8002234
:100278003F065B4F666D7D077F6F00FEFDFBF7EF66
:03028800DFBF7F56
:1001D900C2A0C2A1EF90028393F580D2A1C2A1C2AD
:1001E900A074782DF58274023CF583E493F580EBD5
:0B01F9004A6003438080D2A0C2A02215
:060224000108000109FFC2
:1001A900ED4C600FA8077401088002C333D8FC42E4
:1001B90008800EA8077401088002C333D8FCF452E2
:0F01C90008E50865096008E508F4F59085080960
:0101D8002204
:030000000200AF4C
:0C00AF00787FE4F6D8FD7581420200F66F
:1000BB0002028BE493A3F8E493A34003F68001F2CE
:1000CB0008DFF48029E493A3F85407240CC8C33346
:1000DB00C4540F4420C8834004F456800146F6DF15
:1000EB00E4800B0102040810204080900204E47E9F
:1000FB00019360BCA3FF543F30E509541FFEE4930A
:10010B00A360010ECF54C025E060A840B8E493A3D0
:10011B00FAE493A3F8E493A3C8C582C8CAC583CAFB
:10012B00F0A3C8C582C8CAC583CADFE9DEE780BEB3
:01022A0000D3
:00000001FF
