:100A52001200037F007EF81209A57FB87E0B120AEE
:100A6200A97FE07E071209A57FB87E0B120AA97F33
:0F0A72001F7E001209A57FB87E0B120AA980D142
:020B20002000B3
:0D0AF7008F80C291D2918D80C291D2912248
:050B1B00D290020AF770
:090ACF007E00120B10AF82AE8311
:0B0AD800AD07AC06D290ECFF020AF75D
:0B0B1000AD07AC06C290ECFF020AF734
:060AE3007D037C007E0093
:0E0AE900AB05AA04120B10AF03AE02020AD82E
:100964008E2C8F2D8D828C837F467E00120B10AFD0
:1009740003AD2D120B1B7F47120B10AF33AE321297
:100984000AD87F48120ACF7F207E00120B10AF2DA9
:10099400AE2C120AD87F21120ACF7F227E00020BCE
:0109A4001042
:10000300D292209253E4FDFCFFFE120AE97BFF7AB1
:100013000B7920E4FDFCFFFE1207E9E4F50FF50E72
:10002300F50DF50CF510FDFCFFFE120753E4F50E7C
:10003300FBFAFDFCFFFE120868E4FDFCFFFE12095B
:10004300E0E4F50EF50FFBFAFDFCFFFE1208CBE42E
:10005300FBFDFCFFFE12026ED2947F057E00120AA6
:10006300A9C2947F057E00120AA9D294D292D2A586
:10007300D2917F057E00120AA9C2927D047C207F63
:10008300117E00120AE97D007CCC7F137E00120AE8
:10009300E97D007C267F157E00120AE97D2A7C25F6
:1000A3007F147E00120AE97D337C007F127E0012EA
:1000B3000AE97D047CCC7F137E00120AE97F017E6E
:1000C30000120AA97D067CCC7F137E00120AE97F09
:1000D300017E00120AA97D4F7CCC7F137E00120A99
:1000E300E97F017E00120AA97D4F7C677F137E00A2
:1000F300120AE97D037C207F117E00120AE97F0149
:100103007E00120AA97D097C267F307E00120AE94F
:100113007D2C7C247F317E00120AE97D237C1F7FA6
:10012300327E00120AE97D257C247F337E00120A89
:10013300E97D267C227F347E00120AE97D237C251B
:100143007F357E00120AE97D1A7C1C7F367E001201
:100153000AE97D1D7C137F377E00120AE97D117C3D
:100163000B7F387E00120AE97D107C127F397E00F6
:10017300120AE97D157C137F3A7E00120AE97D1984
:100183007C367F3B7E00120AE97D007C0D7F3C7E3E
:1001930000120AE97D0D7C007F3D7E00120AE97D95
:1001A300077C007F167E00120AE97D137C007F0224
:1001B3007E00120AE97F03120AE37D277C017F0197
:1001C3007E00120AE97F017E00120AA97403FDFC76
:1001D3007F087E00120AE97D0B7C007F0A7E0012F5
:1001E3000AE97F0B120AE3E4FDFC7F0CFE120AE925
:1001F300E4FDFC7F41FE120AE9E4FDFC7F50FE12A0
:100203000AE97D057C007F607E00120AE97D0B7C94
:10021300007F707E00120AE9E4FDFC7F71FE120A82
:10022300E9E4FDFC7F78FE120AE9E4FDFC7F7AFE37
:10023300120AE97D077C007F797E00120AE97D516D
:100243007C007F077E00120AE97F017E00120AA963
:100253007D537C007F077E00120AE9E4FDFC7F7971
:0B026300FE120AE97F227E00020B1051
:0209A500AC069E
:1009A7008C0FA90775320175333F7BEF7A00E4FDA1
:1009B700FCFFFE120964E4FB900000AD01AF0F12CB
:1009C7000B1BA3E582B440F3E583B401EE0BBB0038
:0809D700010AEB64F04A70E034
:0109DF0022F5
:100A8100C3E509950FFFE508950EFEC3E50B950D2E
:060A9100FDE50A950CFCD6
:100A9700AB07AA068C328D33120964AF35AE340228
:020AA7000AD86B
:1009E0008E088F098D828C83E50924FFFFE508348A
:1009F000FFFEE58224FFFDE58334FFFCE5092401C9
:100A0000FBE43508FAE5822401F511E43583F5109D
:090A100085341285351302091F1B
:0C091F008E0A8F0B8C0C8D0D8A0E8B0F36
:10092B00851032851133120964AB0DAA0CD3EB95EC
:10093B0011EA95105022850B82850A83D3E58295A7
:10094B000FE583950E500AAF13AE12120AD8A3808F
:08095B00EB0BBB00010A80D583
:010963002271
:1003BF00E4F51AF51BF51CF51DC3EB9FF51FEA9E1F
:1003CF00F51EC3E5179DF521E5169CF5208E288FA8
:1003DF00298C2A8D2BD3E51F9400E51E6480948011
:1003EF004008752400752501801DE51F451E700608
:1003FF00F524F525801174FFF524F525C3E4951F29
:10040F00F51FE4951EF51ED3E5219400E5206480C9
:10041F0094804008752600752701801DE521452031
:10042F007006F526F527801174FFF526F527C3E42E
:10043F009521F521E49520F520D3E51F9521E520A1
:10044F006480F8E51E6480984008851E22851F236E
:10045F008006852022852123E4F518F519E523244C
:10046F0001FFE43522FED3E5199FE5189E400302F4
:10047F000501AD2BAC2AAF29AE28120A97E51F252F
:10048F001BF51BE51E351AF51AE521251DF51DE592
:10049F0020351CF51CD3E51B9523E5226480F8E578
:1004AF001A6480984018E51B9523F51BE51A9522D1
:1004BF00F51AE5252529F529E5243528F528D3E56D
:1004CF001D9523E5226480F8E51C6480984018E5AB
:1004DF001D9523F51DE51C9522F51CE527252BF50C
:1004EF002BE526352AF52A0519E51970020518029C
:0204FF00046C8B
:0105010022D7
:1008CB008E088F098C0A8D0B8A0C8B0D850A168569
:1008DB000B171203BF850E16850F17AB09AA08ADB0
:1008EB000BAC0AAF09AE081203BF850E16850F17A6
:1008FB00AB0DAA0CAD0FAC0EAF09AE081203BF8542
:10090B000E16850F17AB0DAA0CAD0BAC0AAF0DAEC7
:04091B000C0203BF08
:08026E008E088F098C0A8D0B2C
:10027600E4F50CF50DEB7E008E0EF50F25E0FFEE96
:1002860033FEC374039FF511E49EF510D3E50D9577
:100296000FE50E6480F8E50C64809840030203BE07
:1002A600120A81E509250FFFE508350E120A8BC3F0
:1002B600E509950DFFE508950CFEE50B250FFDE517
:1002C6000A350EFC120A97120A81C3E509950DFF3D
:1002D600E508950CFEC3E50B950FFDE50A950EFCAA
:1002E600120A97E509250FFFE508350EFEE50B25F1
:1002F6000DFDE50A350CFC120A97E509250DFFE50B
:1003060008350CFEC3E50B950FFDE50A950EFC12AC
:100316000A97E509250DFFE508350CFEE50B250FC7
:10032600FDE50A350EFC120A97C3E509950FFFE5B0
:1003360008950EFEE50B250DFDE50A350CFC120AA7
:1003460097050DE50D7002050CC3E51064809480D9
:10035600501FE50DAE0C7802C333CE33CED8F92448
:1003660006FFE43EFEEF2511F511EE3510F510807F
:100376002DC3E50D950FFFE50C950EFEEF7802C334
:1003860033CE33CED8F9240AFFE43EFEEF2511F52D
:1003960011EE3510F510E50F150F7002150EE50973
:1003A600250DFFE508350CFEE50B250FFDE50A35A5
:0803B6000EFC120A97020292EC
:0103BE00221C
:0A0638008E148F158C168D178B1889
:1006420085141C85151D85341E85351FD3E515942B
:10065200E0E51494004003020752E5179430E516D2
:100662009401400302075274E02518F518E5152499
:1006720007FBE43514FAE517240FF533E43516F5D4
:1006820032AD17AC16AF15AE14120964E5197067D6
:10069200F9E51875F010A4FFE97C002FFFEC35F0A6
:1006A200FE74002FF58274003EF583E493F51AE49C
:1006B200F51BE51A30E008851E34851F3580068556
:1006C2003634853735AF35AE34120AD8E51AC3133E
:1006D200F51A0515E51570020514051BE51BC394F3
:1006E2000840CF851C14851D150517E517700205F6
:1006F2001609B9109C8053E4F9E51875F010A4FFAF
:10070200E97C002FFFEC35F0FE74002FF5827400B7
:100712003EF583E493F51AE4F51BE51A30E0187E02
:1007220000E515251BFFEE3514FEE97C002517FDBB
:10073200EC3516FC120A97E51AC313F51A051BE5E8
:100742001BC3940840D409B910AF851E34851F35E8
:010752002284
:040A19008F148D1594
:100A1D00E4751901F518F517F516AF151515EF60F5
:100A2D001BAB19AA18A917A816AF14E4FCFDFE12EA
:100A3D00051B8F198E188D178C1680DEAF19AE1809
:040A4D00AD17AC161F
:010A51002282
:080753008E088F098C0A8D0B42
:10075B00E4F513850F0F850E0EF50DF50CF511E570
:10076B0011C395105077C3E510951114FD7F0A1234
:10077B000A19A804A905AA06AB07AF0FAE0EAD0D5B
:10078B00AC0C1205A6E47B0AFAF9F81205A6AF0326
:10079B008F12E5137026E51014FFE511C39F501C53
:1007AB00E5127015E51175F008A42509FFE508356C
:1007BB00F0FEE4F5197B208019751301E51175F036
:1007CB0008A42509FFE50835F0FEE5122430FBE40B
:0D07DB00F519AD0BAC0A120638051180822D
:0107E80022EE
:0C0868008E088F098C0A8D0B8A0C8B0DFA
:10087400E4F50FE50FC3950E504CC3E50E950F1428
:10088400FD7F0A120A19A804A905AA06AB07AE0C33
:10089400AF0DE4FCFD1205A6E47B0AFAF9F8120593
:1008A400A6AF038F10E50F75F008A42509FFE5082E
:1008B40035F0FEE5102430FBE4F519AD0BAC0A125B
:0608C4000638050F80ADAF
:0108CA00220B
:1007E9008E088F098C0A8D0B8B0C8A0D890EAB0C28
:1007F900AA0DA90E1205026065D3E50994E0E50882
:1008090094004010E4F508F5097410250BF50BE484
:10081900350AF50AD3E50B9430E50A9401400FE453
:10082900F508F509F50AF50BFF7EF81209A5AB0CD9
:10083900AA0DA90E120502FBE4F519AD0BAC0AAF1E
:1008490009AE0812063874082509F509E43508F5D2
:0F085900087401250EF50EE4350DF50D80902283
:100AA900E4FDFCC3ED9FEE6480F8EC64809850157A
:100AB900E4FBFA0BBB00010ABA03F8BBE8F50DBD6C
:050AC90000010C80DEBD
:010ACE002205
:03000000020B04EC
:0C0B0400787FE4F6D8FD758137020A52B4
:10050200BB010689828A83E0225002E722BBFE02F7
:09051200E32289828A83E493222A
:10051B00E88FF0A4CC8BF0A42CFCE98EF0A42CFC7F
:10052B008AF0EDA42CFCEA8EF0A4CDA8F08BF0A4FD
:10053B002DCC3825F0FDE98FF0A42CCD35F0FCEB5C
:10054B008EF0A4FEA9F0EB8FF0A4CFC5F02ECD3921
:0F055B00FEE43CFCEAA42DCE35F0FDE43CFC228E
:10056A0075F008758200EF2FFFEE33FECD33CDCC48
:10057A0033CCC58233C5829BED9AEC99E5829840CB
:10058A000CF582EE9BFEED9AFDEC99FC0FD5F0D6A8
:10059A00E4CEFBE4CDFAE4CCF9A88222B800C1B9D2
:1005AA000059BA002DEC8BF084CFCECDFCE5F0CB10
:1005BA00F97818EF2FFFEE33FEED33FDEC33FCEB49
:1005CA0033FB10D703994004EB99FB0FD8E5E4F904
:1005DA00FA227818EF2FFFEE33FEED33FDEC33FCF1
:1005EA00C933C910D7059BE99A4007EC9BFCE99AE5
:1005FA00F90FD8E0E4C9FAE4CCFB2275F010EF2F2A
:10060A00FFEE33FEED33FDCC33CCC833C810D70729
:10061A009BEC9AE899400AED9BFDEC9AFCE899F864
:0E062A000FD5F0DAE4CDFBE4CCFAE4C8F922F7
:00000001FF
