:10024E002020323030372D372D3330204D4F4E0099
:0D025E002020202020203A20203A202000DF
:1001DB00C2B48F807F057E001201ECD2B47F057E06
:0101EB000013
:1001EC00D3EF9400EE940040147D6E7C00ED1D70F6
:0D01FC00011CED4C70F7EF1F70E61E80E354
:0102090022D2
:10023000C2A37F327E001201ECD2A37F647E001243
:0E02400001ECC2A37F327E001201ECD2A32299
:0902CD00AD097F0A12020E7FCA7E
:0802D600C2B51201DBC2B42223
:0802F800D2B51201DBC2B422F1
:10013C00D2AFD2A8D288C2A6C2A7C2B47B0A7D0D08
:10014C007F0E12026B7D267F0B1202A07F0C120217
:10015C00867F381202D67F0C1202D67F061202D688
:10016C007F011202D67F801202D6E4FBEB90024E86
:10017C0093FF1202F81201E80BBB0FF07FC01202C2
:10018C00D6E4FBEB90025E93FF1202F81201E80B2F
:03019C00BB0CF0A9
:01019F00223D
:04020A00AD0B7F07B2
:10020E00ED75F00A84FBED75F00A84AAF0EF24C0B8
:10021E00FF1202D6EB2430FF1202F8EA2430FF025E
:02022E0002F8D4
:10000600C2B7E50D6401702120B10F7F05FE120114
:10001600EC20B10630B1FDE4F50D20B20C1201E87A
:1000260020B20630B2FDE4F50D20B05A1201E820E8
:10003600B01C050E750801E4F50D30B0FDE50EB4F3
:10004600010CC28C7FCA1202D67F0F1202D6E50EB1
:10005600B402057FC71202D6E50EB403057FC412AB
:1000660002D6E50EB4041FE4F50E7F0C1202D6E4A8
:10007600F508AD09FF1202A0AD0B7F021202A0AD7A
:100086000C7F041202A0E50E700302013B20B15161
:100096007F017E001201EC20B14730B1FDE50EB4C0
:1000A600010D0509E509B43C03E4F5091202CDE5A5
:1000B6000EB40212050BE50BB43C03E4F50B120279
:1000C6000A7FC71202D6E50EB40316050CE50CB47A
:1000D6001803E4F50CAD0C7F0412020E7FC4120265
:1000E600D620B2517F017E001201EC20B24730B219
:1000F600FDE50EB4010D1509E509B4FF0375093BCD
:100106001202CDE50EB40212150BE50BB4FF037512
:100116000B3B12020A7FC71202D6E50EB403161570
:100126000CE50CB4FF03750C17AD0C7F0412020E20
:060136007FC41202D62274
:1002A000C294D295D297D2968F80C295C2968D80F5
:0702B000D296D295D29422F0
:10028600D295D297D296C2948F80C295C297758026
:09029600FFAF80D297D295D294FB
:01029F00223C
:0E02DE007D0A7F041202A07D207F020202A092
:10026B00AE07AF03AC05AD077F011202A0AD047F53
:0B027B00031202A0AD067F050202A0E6
:1001A000C2B612013C120006E50DB4010312023082
:1001B000E50870F1FF1202868F097F021202868F16
:1001C0000B7F041202868F0CAD097F0A12020E12F9
:0B01D000020AAD0C7F0412020E80CA70
:030003000202B73F
:0702B700C0D075D000C007A4
:0A02BE00750D017F0C1202868F0FF0
:0502C800D007D0D03288
:030000000202EC0D
:0C02EC00787FE4F6D8FD75810F0201A0B8
:00000001FF
