:10006E00BBDBBEBBB5E7D7D3007777772E686A6D5B
:10007E0063752E636F6D00484C2D312020D1A7CFB4
:10008E00B0B0E52000CAC7C4FAD7EEBAC3B5C4D122
:07009E00A1D4F1A3A1200091
:0400CB007F057E002F
:0A00CF00EF1FAC0670011E4C60121A
:1000D900E4F50EE50EC394FA50EC00000000050E9D
:0200E90080F1A4
:0100EB0022F2
:10014200C290D291D2A500000000E580339200C295
:03015200A5A20063
:010155002287
:10010C0012014240FBC290C291C2A500008F800038
:0C011C00000000D2A500000000C2A522D7
:1001280012014240FBD290C291C2A58F800000000C
:0A01380000D2A500000000C2A522BD
:1000A500D2927F3412010C1200CB7F3012010C1258
:1000B50000CB7F0C12010C1200CB7F0112010C7FCB
:0600C500057E000200CFE1
:100003007F0A7E001200CFC2A6C2A71200A5E4FD9C
:10001300FF1200ECE4FEEE90006E93FF6006120107
:10002300280E80F2E4FD7F011200ECE4FEEE900066
:100033007793FF60061201280E80F2E4FD7F02121F
:1000430000ECE4FEEE90008593FF60061201280E9B
:1000530080F2E4FD7F031200ECE4FEEE9000939344
:0B006300FF60061201280E80F280FEF4
:10015600AD071FED600BE4FEEEC3940D50F20E806A
:01016600F7A1
:010167002275
:1000EC00EF70047F808013BF01047F90800CBF02EF
:1000FC00047F888005BF03027F98EF2DFF02010C5F
:0300000002016892
:0C016800787FE4F6D8FD758120020003CA
:00000001FF
