:0E00F5007777772E686C6D63752E636F6D00E4
:08011900D2A0E4F580C2A0228F
:03012100DFFE22DC
:1000BF00AE07AF061EEF600C7FF51201217FF51220
:0500CF00012180EE227A
:1000E5007580FFC290D291C2A500D2A5E5803322CA
:0C0071007F3812007D7F051200BF7F3831
:10007D001200E540FBC290C291D2A58F8000C2A5AF
:01008D002250
:1000D4001200E540FBD290C291D2A58F8000C2A548
:0100E40022F9
:0A010F007F0112007D7F050200BF92
:10002A00AE07ED7005EE24808003EE24C0FF1200B7
:10003A007D12008EFF600C1200D4740129F9E43A93
:04004A00FA80EE2228
:1000A700AE07AC03ED7005EE24808003EE24C0FF9D
:0800B70012007DAF040200D429
:10004E001200717F051200BF1200717F0812007D31
:10005E007F0112007D7F0612007D1F1200BF7F0CF4
:03006E0002007D10
:1000030012011912004E12010F7B6FE4FD7F0712DC
:1000130000A77B6B7F081200A77BFF7A0079F50DA1
:070023007F0112002A80FE9C
:03000000020103F7
:0C010300787FE4F6D8FD75810702000348
:10008E00BB010689828A83E0225002E722BBFE0270
:09009E00E32289828A83E49322A3
:00000001FF
