:100003007777772E686A6D63752E636F6D00BBDB40
:10001300BEBBB5E7D7D3BFC6BCBC00BFAAB7A2D38C
:10002300D0CFDEB9ABCBBE0049204C4F5645204E56
:1000330042432000BBDBBEBBBFC6BCBC00D3EBC48A
:10004300FACDACD0D000313233343536373839308D
:10005300006162636465666768696A6B6C6D006EF4
:100063006F707172737475767778797A00602C2E5D
:100073002F3C3E273B3A5B5D7B7D7C3F29000000A4
:10008300000000000000000000000000000000006D
:10009300000000000000000000000000000000005D
:1000A300000000000000000000000000000000004D
:1000B300000000000000000000000000000000003D
:1002930000101010101010001010000000000000DB
:1002A30000242424000000000000000000000000DF
:1002B3000024247E2424247E242400000000000043
:1002C30000107C90907C12127C1000000000000053
:1002D300000062640810204C8C0000000000000045
:1002E3000000182420508A844A30000000000000D7
:1002F30000101020000000000000000000000000BB
:1003030008102020202020202010080000000000DA
:100313002010080808080808081020000000000042
:100323000000001054383854100000000000000092
:1003330000000010107C10100000000000000000FE
:10034300000000000000000010102000000000006A
:1003530000000000007C000000000000000000001E
:10036300000000000000000000100000000000007A
:1003730000000002040810204000000000000000FC
:10038300003844444C5464444438000000000000E6
:100393000010301010101010103800000000000082
:1003A3000038440404081020407C000000000000D2
:1003B300007C0408103804040478000000000000E6
:1003C3000008182848487C080808000000000000BE
:1003D300007C4040407804040478000000000000E2
:1003E300003C404040784444443800000000000092
:1003F300007C0404081020202020000000000000DE
:1004030000384444443844444438000000000000A9
:1004130000384444443C0404043800000000000055
:1004230000000000001000001000000000000000A9
:100433000000000000001000101020000000000069
:100443000000000408102010080400000000000051
:1004530000000000007C007C0000000000000000A1
:100463000000002010080408102000000000000015
:10047300384444040810100010100000000000006D
:1004830000000038445C545C403C00000000000065
:1004930018244242427E42424242000000000000D1
:1004A3007C4242427C424242427C00000000000007
:1004B3003C42404040404040423C000000000000BD
:1004C3007C42424242424242427C00000000000021
:1004D3007E40404078404040407E000000000000E5
:1004E3007E40404078404040404000000000000013
:1004F3003C4240405E424242423C00000000000059
:10050300424242427E424242424200000000000018
:1005130038101010101010101038000000000000E8
:100523001C080808080808084830000000000000FC
:1005330042444850606050484442000000000000BC
:100543004040404040404040407E000000000000EA
:100553008282C6C6AAAA929282820000000000008C
:1005630042626252524A4A4646420000000000007C
:100573003C42424242424242423C000000000000F0
:100583007C424242427C4040404000000000000068
:100593003C424242424242424A3C0E0000000000BA
:1005A3007C424242427C504844420000000000002A
:1005B3003C4240403C020202423C0000000000007A
:1005C3007C1010101010101010100000000000001C
:1005D3004242424242424242423C0000000000008A
:1005E3004444444428282810101000000000000050
:1005F300828282825454542828280000000000007C
:10060300424224181818242442420000000000002B
:100613004444444428281010101000000000000037
:100623007E02020408102040407E0000000000000B
:100633003820202020202020203800000000000047
:100643000000000040201008040200000000000029
:100653001C04040404040404041C0000000000003F
:10066300000010284400000000000000000000000B
:1006730000000000000000000000FF000000000078
:10068300001010080000000000000000000000003F
:1006930000000078043C4444443A00000000000099
:1006A3004040405C62424242625C00000000000045
:1006B3000000003C42404040423C0000000000007B
:1006C3000202023A46424242463A0000000000005B
:1006D3000000003C42427E40423C0000000000001B
:1006E3000E1010103C10101010100000000000003D
:1006F3000000003E424242423E02023C0000000033
:100703004040405C6242424242420000000000001E
:100713000008000808080808080800000000000096
:10072300000400040404040404044438000000002A
:1007330040404042444850684442000000000000EA
:100743001010101010101010101000000000000006
:10075300000000EC9292929292920000000000003E
:100763000000007C4242424242420000000000007E
:100773000000003C42424242423C000000000000B4
:100783000000005C62424242625C404000000000A4
:100793000000003A46424242463A0202000000008C
:1007A3000000005C62404040404000000000000048
:1007B3000000003C42403C02423C000000000000BC
:1007C3000020207820202020221C000000000000B0
:1007D3000000004242424242423E0000000000004C
:1007E3000000004242424242241800000000000080
:1007F3000000008282829292AA440000000000005E
:10080300000000424224182442420000000000007D
:1008130000000042424242423E02023C000000000D
:100823000000007E02041820407E0000000000004B
:1008330008101010204020101010080000000010B5
:1008430010101010101010101010101010000000D5
:1008530020101010080408101010200000000000E1
:100863000000000022548800000000000000000087
:100873000000000000000000000000000000BBDBDF
:100883000008207EFC08207EFC08207EFC08201F38
:10089300F800081FF800081FF82484241243F2000C
:1008A30000BEBB00010041F82210322027F808489F
:1008B30020482FFE20482048C7F840404040404091
:1008C30041404080B5E7000100010001003FF821ED
:1008D3000821083FF82108210821083FF8210801D1
:1008E30002010200FE0000D7D30000003FF0002009
:1008F30000400080010001000104FFFE010001002F
:1009030001000100010005000200BFC600060878CF
:100913008808480848FE0818881C482A48280E48B2
:10092300788B8808080808080808080808BCBC0071
:10093300102010201020FDFE1020142019FC310877
:10094300D0881090106010601090110E5604200093
:10095300BFAA0000007FFE0420042004200420FF1F
:10096300FE0420042004200820082010202020401A
:10097300200000B7A20002002240223022107FFE96
:100983002400040007E00C200A200A2011402080E4
:100993004160861C1808D3D000010001007FFE02CD
:1009A3000004000FF0181028104FF0881008100FE3
:1009B300F00810089008700820CFDE000000FBF854
:1009C300920893F8A208A20893F88A808A48AA504A
:1009D300922082208210828E83048200B9AB0000B1
:1009E30000044006400440082008101018220E435B
:1009F3000402000420081011F83F1810100000CB67
:100A0300BE0000003FFC000400047FE40004000477
:100A13003FC4204420443FC4204420040014000861
:100A23000000D3EB000000080008040FFE080008D4
:100A3300000FFC0004000400247FF4000400040001
:100A43004800300000C4FA000800090011FE120437
:100A53003440325052489444114410800000290419
:100A63002892681207F00000CDAC0000007FFC4024
:100A73000440045FF4400440044FE44824482448FD
:100A8300244FE44824400440144008D0D000080018
:100A93001C0031FC400088000C001BFE302050205D
:0E0AA3009020102010201020102010A01040D5
:100C5900120AB17F007EF8120FC07BFF7A00790378
:100C690074FFF50FF5107511F8751200E4FDFC7F9E
:100C790008FE120E3E7BFF7A007911750FF8751088
:100C89001F7511F87512007D107F0F120E3A7BFF48
:100C99007A00791E750FF875101F7511F875120015
:100CA9007D207C007F0F7E00120E3E7BFF7A00794B
:100CB9002BE4F50FF5107511F8F5127D32FC7F164E
:100CC900FE120E3E7BFF7A007937750F077510E02B
:100CD9007511F87512007D44120E387BFF7A007980
:100CE90040750F0075101F7511F87512007D547C41
:100CF900007F327E00120E3E7BFF7A007949750F24
:100D0900037510E07511F87512007D647C007F147D
:100D19007E00120E3E7BFF7A007954750FF875102C
:100D29001F7511F87512007D72120E387BFF7A005B
:100D39007962750FF875101F7511F87512007D80AD
:100D4900120E387BFF7A007970750F0575101F75C3
:100D590011F87512007D8E7C00E4FFFE120E3E80B4
:010D6900FE8B
:060FE70012101B7F32FE18
:100FED00EF1FAA0670011E4A6013E4FCFDC3ED94C9
:0D0FFD000AEC940050EA0DBD00010C80F0DC
:01100A0022C3
:10100B0012101B7F32FE120FED7F0712102DE4FF23
:0D101B00D290C2958F80C291D291D29522C1
:02104900AC06F3
:0C104B00AD07AF0612101BAF0502101B12
:0510280012101B7F13F4
:0D102D00C290C2958F80C291D291D29522BF
:100AB100C2947F0A7E00120FEDD294D291D2A57F0B
:100AC100B41210167F1012101B7F0712102DFF1287
:100AD100101B121028FF12101B120FE77F121210A9
:100AE100167F711210287F0812101B7F0B12101B2A
:100AF1007F1412102D7F5912101B7FCF12101B7FF4
:100B01001012102D7F1912101B7F1012101B7F0164
:100B110012102D12101B7F1412101B7F0212102DA8
:100B21001F12101B1F12101B7F0312102D7F10129A
:100B3100101B7F3012101B7F0812102D7F03121023
:100B41001B1F12101B7F0B12102DFF12101B1210F6
:100B51001B7F0C12102DFF12101B7F02120FE77F5B
:100B61003012101612101B7F3112102D7F06121039
:100B71001B1F12101B7F3212102DFF12101B7F073B
:100B810012101B7F3312102D7F0612101BFF121043
:100B91001B7F3412102D7F0212101B7F0412101BB9
:100BA1007F3512102DFF12101B7F0212101B7F3692
:100BB10012102D7F0712101B12101B7F3612102DE1
:100BC1007F0712101B12101B7F3712102DFF1210FE
:100BD1001B12101B7F3812102D7F0F12101BFF12DA
:100BE100101B7F1112102DFF12101B7F0F12101BF3
:100BF1007F4012102DFF12101B12101B7F4212108A
:100C01002D7F9F12101BFF12101B7F4312102D7F8F
:100C11009F12101BFF12101B7F4412102D7F7F1299
:100C2100101BFF12101B7F4512102D7F9F12101BEE
:100C3100FF1210287F0812101B7F1B12100B7F055B
:100C410012100B7F2512100B7F2712100B7F37120A
:080C5100101B7F32FE020FEDC3
:0A0F8000FDAB82AE82EE240FF52ACD
:100F8A00AE07AC037F4412102DAF0512101BAF063B
:100F9A0012101B7F4512102DAF2A12101BAF04121C
:100FAA00101B7F2112102DAF0412101BAF06121056
:060FBA001B7F2202102D36
:040FC0008F828E830B
:100FC400752A9FE4FB7D7FFF120F8AE4FAAF82AE9D
:100FD400831210490AEAD3947F40F20BEBD3949F17
:020FE40040E9E2
:010FE60022E8
:060EC7008D82AD07A903B6
:090ECD00ED2407120F80E4FBFA8A
:100ED600E9FF3395E0FEEFC4F8540FC868FFEEC48F
:100EE60054F048FEEF2BFFEE3AFE74812FF5827424
:100EF600003EF583E493F526900000E52630E706EC
:100F0600AF23AE228004AF25AE24121049E5262574
:0C0F1600E0F526A3E5826408458370DF47
:0B0F22000BBB00010AEB64104A70A931
:010F2D0022A1
:0F103A00851922851A23851B24851C25020EC7C4
:0A0D6A008B188A19891A8D82AD07D3
:100D7400ED240F120F80E4F51FF520AB18AA19A972
:100D84001A120F2EFF90088175F023E520120F74BC
:100D9400E51F75F023A42583F583E4936F600302B4
:100DA4000E23900001120F47FF90088275F023E58F
:100DB40020120F74E51F75F023A42583F583E493B3
:050DC4006F705CFBFAFA
:100DC90090088475F023E520120F74E51F75F02350
:100DD900A42583F583E5822BF582E5833AF583E43F
:100DE90093752100F522900000E52230E706AF1C3B
:100DF900AE1B8004AF1EAE1D121049E52225E0F599
:0F0E090022E52133F521A3E5826408458370DAE1
:100E18000BBB00010AEB64204A70A60520E5207090
:0F0E280002051FC39440E51F94005003020D7F85
:010E37002298
:060E38007F0A7C007E0031
:0E0E3E008E088F098C0A8D0B8B0C8A0D890E85
:100E4C00E4F513AB0CAA0DA90E120F2E606CC39413
:100E5C0080E51375F008502FA42509FFE50835F03F
:100E6C00FE120F2EFB850F1985101A85111B85128A
:100E7C001CAD0BAC0A12103A7401250EF50EE435BC
:100E8C000DF50D051380BCA42509FFE50835F0FE12
:100E9C00AB0CAA0DA90E850F1B85101C85111D8589
:100EAC00121EAD0BAC0A120D6A7402250EF50EE47F
:0A0EBC00350DF50D051305138089AF
:010EC6002209
:0300000002105794
:0C105700787FE4F6D8FD75812A020C5960
:100F2E00BB010689828A83E0225002E722BBFE02C1
:090F3E00E32289828A83E49322F4
:100F4700BB010CE58229F582E5833AF583E022505F
:100F570006E92582F8E622BBFE06E92582F8E222A9
:0D0F6700E58229F582E5833AF583E49322C3
:0C0F7400A42582F582E5F03583F5832288
:00000001FF
