:03000000020F31BB
:0C0F3100787FE4F6D8FD758107020A15F0
:100D8400000000000000000000000000000000005F
:100D9400000000000000000000000000000000004F
:100DA400000000000000000000000000000000003F
:100DB400000000000000000000000000000000002F
:080DC400000000000000000027
:0B0EBB00900023EBF0A3EAF0A3E9F0A5
:100EC600E4FFFE900023E0FBA3E0FAA3E0F98F82A3
:100ED6008E83E41206D40FBF00010EEF64204E701D
:010EE600E229
:010EE70022E8
:0B000300900023EBF0A3EAF0A3E9F06B
:10000E00E4A3F0A3F0A3F0A3F0A3F0A3F0A3F0A356
:10001E00F0A3F0A3F078307C007D017BFF7A0D79A0
:10002E0084FE7F2012068190005012075E000000B1
:10003E000078547C007D017BFF7A0D79A47E007FD1
:10004E0008120681900023E0FBA3E0FAA3E0F9A3D7
:10005E00E0FEA3E0F5828E831206A7FF643D7003D7
:10006E00020172EFC39430500302011BEFD3943997
:10007E00400302011B900023A3A3A3A3E0F5828EED
:10008E00831206A7FF3395E0FEEF24D0FFEE34FF78
:10009E00FE3395E0FDFCC004C005C006C00790000D
:1000AE0028E0FEA3E07802C333CE33CED8F9243055
:1000BE00F58274003EF583E0FCA3E0FDA3E0FEA311
:1000CE00E0FFE47B0AFAF9F81206F6D003D002D06C
:1000DE0001D000EF2BFFEE3AFEED39FDEC38FCC0FF
:1000EE0004C005C006C007900028E0FEA3E0780219
:1000FE00C333CE33CED8F92430F58274003EF58367
:10010E00D007D006D005D0041207528046900023A7
:10011E00E0FBA3E0FAA3E0F9A3E0FEA3E0F5828EF4
:10012E00831206A7FF90002AE0FCA3E02454F58278
:10013E0074003CF583EFF0900029E004F070069017
:10014E000028E004F090002BE004F0700690002AE6
:10015E00E004F0900027E004F07006900026E00422
:10016E00F0020052E4900026F0A3F0900026E0FE8C
:10017E00A3E02454F58274003EF583E0700302037D
:10018E00BC6478705B900026A3E02455F582740061
:10019E003EF583E0FF642B6004EFB42D4390002600
:1001AE00E0FEA3E07802C333CE33CED8F92430F587
:1001BE008274003EF583C083C082E0FCA3E0FDA301
:1001CE00E0FEA3E0FFC004C005C006C007900026F5
:1001DE00E0FEA3E07802C333CE33CED8F902038516
:1001EE00900026E0FEA3E0FF2454F58274003EF555
:1001FE0083E0642F707674552FF58274003EF5837C
:10020E00E0FF642B6004EFB42D62900026E0FEA3A5
:10021E00E07802C333CE33CED8F92430F5827400A1
:10022E003EF583C083C082E0FCA3E0FDA3E0FEA305
:10023E00E0FFC004C005C006C007900026E0FEA384
:10024E00E07802C333CE33CED8F92434F58274006D
:10025E003EF583E0F8A3E0F9A3E0FAA3E0FBD007B4
:10026E00D006D005D004120DCC0203A4900026E0D7
:10027E00FEA3E02454F58274003EF583E0FF64781B
:10028E006008EF642F60030203AB90002EE0700253
:10029E00A3E07015900026E0FFA3E090002CCFF0B5
:1002AE00A3EFF0A3E4F0A304F0900026E0FEA3E099
:1002BE002454F58274003EF583E0B42F6690002C32
:1002CE00E0FEA3E07802C333CE33CED8F92430F566
:1002DE008274003EF583C083C082E0FCA3E0FDA3E0
:1002EE00E0FEA3E0FFC004C005C006C007900026D4
:1002FE00E0FEA3E07802C333CE33CED8F92434F532
:10030E008274003EF583E0F8A3E0F9A3E0FAA3E0DF
:10031E00FBD007D006D005D004120DCCD082D083EE
:10032E00120752900026E0FEA3E02454F5827400DA
:10033E003EF583E0B4786690002CE0FEA3E07802F0
:10034E00C333CE33CED8F92430F58274003EF58314
:10035E00C083C082E0FCA3E0FDA3E0FEA3E0FFC0EB
:10036E0004C005C006C007900026E0FEA3E0780298
:10037E00C333CE33CED8F92434F58274003EF583E0
:10038E00E0F8A3E0F9A3E0FAA3E0FBD007D006D093
:10039E0005D0041206F6D082D083120752900027A1
:1003AE00E004F07006900026E004F0020179E4907B
:1003BE000026F0A3F0900030E0FCA3E0FDA3E0FEE9
:1003CE00A3E0FF900050120752900026E0FEA3E03B
:1003DE002454F58274003EF583E0700302058764B1
:1003EE002B60030204AC900026A3E0FF4E705DEF7D
:1003FE007802C333CE33CED8F92434F58274003E5E
:10040E00F583E0FCA3E0FDA3E0FEA3E0FFC004C083
:10041E0005C006C007900026E0FEA3E07802C333B5
:10042E00CE33CED8F92430F58274003EF583E0F851
:10043E00A3E0F9A3E0FAA3E0D007D006D005D004DC
:10044E002FFFEA3EFEE93DFDE83C804B900050E078
:10045E00FCA3E0FDA3E0FEA3E0FFC004C005C006C0
:10046E00C007900026E0FEA3E07802C333CE33CE61
:10047E00D8F92434F58274003EF583E0F8A3E0F950
:10048E00A3E0FAA3E0D007D006D005D0042FFFEEEC
:10049E003AFEED39FDEC38FC9000501207529000F8
:1004AE0026E0FEA3E0FF2454F58274003EF583E0BF
:1004BE00642D6003020576EF4E7058900026A3E07F
:1004CE007802C333CE33CED8F92434F58274003E8D
:1004DE00F583E0F8A3E0F9A3E0FAA3E0FBC000C0C7
:1004EE0001C002C003900026E0FEA3E07802C333F1
:1004FE00CE33CED8F92430F58274003EF583E0FC7D
:10050E00A3E0FDA3E0FEA3E0D003D002D001D00013
:10051E00C38044900050E0FCA3E0FDA3E0FEA3E006
:10052E00FFC004C005C006C007900026E0FEA3E091
:10053E007802C333CE33CED8F92434F58274003E1C
:10054E00F583E0F8A3E0F9A3E0FAA3E0FBD007D02F
:10055E0006D005D004C3EF9BFFEE9AFEED99FDEC9D
:10056E0098FC900050120752900027E004F070069D
:10057E00900026E004F00203D77B3D7D017F02123E
:10058E000F3D900050E0FCA3E0FDA3E0FEA3E0FFD2
:10059E0090005E1207529000627405F07D027F0299
:0305AE00020B1528
:100A1500E4900000F078017C007D017BFF7A0D7980
:100A2500ACFE7F20120681E4900021F0A3F0120EA7
:100A3500E812085D900000EFF0643D603FE0FF6460
:100A4500466039EF64626034EF6443602F900021A3
:100A5500E0FCA3E02401F58274003CF583EFF07B14
:100A6500017A0079017D017F01120E52900022E08A
:100A750004F070BD900021E004F080B5900000E026
:100A8500B4431C7F01120E8B7F02120E8B7B017A01
:100A9500007901120EBBE4900021F0A3F080929042
:100AA5000000E06462703F7F01120E8B900021E030
:100AB500FEA3E0FFC39401EE9400401A74002FF5E5
:100AC5008274003EF583E4F0900022E024FFF0906C
:100AD5000021E034FFF07B017A0079017D017F017F
:100AE500120E52020A36900000E0643D6003020ACD
:100AF50036900021E0FEA3E02401F58274003EF566
:100B050083743DF07B017A007901120003020A36F5
:100F1E00E47D027CC7DCFEDDFCEF1F70011E144E6B
:020F2E0070EF62
:010F3000229E
:0D0BD500E4FAF9F8120DCCEB2430FD7F029C
:100BE200EFB40106C290C2918004D290C291ED305E
:100BF200E704D2878002C287ED30E604D286800203
:100C0200C286ED30E504D2858002C285ED30E4046F
:100C1200D2848002C284ED30E304D2838002C28394
:100C2200ED30E204D2828002C282ED30E104D28150
:100C32008002C281ED30E004D2808002C280D2A55F
:100C42007F017E00120F1EC2A57F017E00020F1ED1
:100F0400AE05EFB40104EE148007EFB4020BEE2437
:0A0F14003F4480FD7F01120BE22232
:100EE8007D387F01120BE27D0C7F01120BE27D063B
:0C0EF8007F01120BE27D017F01020BE282
:0C0F3D00120F04AF03AD077F02020BE2AD
:0B0E5200900023EBF0A3EAF0A3E9F00E
:100E5D00E4A3F0120F04E4F0900023E0FBA3E0FA0A
:100E6D00A3E0F9A3E0F5827583001206A7FD600DDE
:0D0E7D007F02120BE2900026E004F080DB03
:010E8A002245
:0C0C5200EF7F0A24FFFDE434FFFC7E006D
:0E0C5E00900069EEF0A3EFF0A3ECF0A3EDF030
:100C6C00E4A3F0A312075E00000001E490006DF015
:100C7C0090006DE0FFD390006CE09F7480F89000C2
:100C8C006BE0648098402D900069E0FEA3E0FFEEDD
:100C9C003395E0FDFC90006EE0F8A3E0F9A3E0FAD8
:100CAC00A3E0FB1206F690006E12075290006DE066
:100CBC0004F080BC90006EE0FCA3E0FDA3E0FEA37A
:020CCC00E0FF47
:010CCE002203
:100E1000E4900079F0120F04900078E0A3F09000C5
:100E200079E0FFD394004029120C52A804A905AA26
:100E300006AB07900074E0FCA3E0FDA3E0FEA3E096
:100E4000FF120DCC7B0A120BD5900079E014F080D4
:010E5000CDD4
:010E5100227E
:040B1500AB05A9077C
:100B1900E4900063F0A3F0FAA312075E000000015D
:100B2900AF01AE03AD06120F0490005EE0FCA3E036
:100B3900FDA3E0FEA3E0FFEC33400280267D2D7F7C
:100B490002120BE290005EE0FCA3E0FDA3E0FEA32D
:100B5900E024FFFFEE34FFFEED34FFFDEC34FFFC33
:100B6900120745900065120752900062E0900064F8
:100B7900F0900064E0FFD394004050120C52A80496
:100B8900A905AA06AB07900065E0FCA3E0FDA3E078
:100B9900FEA3E0FF120DCCE47B0AFAF9F8120DCCA2
:100BA900EB2430FAD39430400CEAD39439500690B0
:100BB90000637401F0900063E0B40107AD027F02A5
:0B0BC900120BE2900064E014F080A624
:010BD40022FE
:080CCF0090007CEAF0A3EBF0B9
:100CD700E490007FF0FB120F0490007EE0A3F090F9
:100CE700007FE0FFD394004040EF7F10120C55A81F
:100CF70004A905AA06AB0790007CE0FEA3E0FFE489
:100D0700FCFD120DCCE47B10FAF9F8120DCCEBC305
:100D1700940AEB5004243080022437FD7F02120B23
:090D2700E290007FE014F080B6B8
:010D300022A0
:080D3100900082EAF0A3EBF050
:100D3900E4900085F0120F04900084E0A3F0900085
:100D490085E0FFD394004032EF24FFFDE434FFFC3B
:100D59007F027E00120C5EA804A905AA06AB0790C3
:100D69000082E0FEA3E0FFE4FCFD120DCC7B021241
:0A0D79000BD5900085E014F080C453
:010D8300224D
:100E8B00E4FBEFB401147D807F01120BE27D207F28
:100E9B0002120BE20BEBB410F4227DC07F01120B9C
:0F0EAB00E2E4FB7D207F02120BE20BEBB410F4AC
:010EBA002215
:10085D009000237446F020B6137F147E00120F1EF5
:10086D0020B60930B6FD9000237443F020B4137FF9
:10087D00147E00120F1E20B40930B4FD90002374B5
:10088D0062F0C2B4D2B5D2B6D2B720B3137F147E04
:10089D0000120F1E20B30930B3FD9000237430F009
:1008AD0020B2137F147E00120F1E20B20930B2FD4C
:1008BD009000237437F020B1137F147E00120F1EA9
:1008CD0020B10930B1FD9000237434F020B0137FB6
:1008DD00147E00120F1E20B00930B0FD900023745D
:1008ED0031F0D2B4C2B5D2B6D2B720B3137F147ED5
:1008FD0000120F1E20B30930B3FD900023742EF0AB
:10090D0020B2137F147E00120F1E20B20930B2FDEB
:10091D009000237438F020B1137F147E00120F1E47
:10092D0020B10930B1FD9000237435F020B0137F54
:10093D00147E00120F1E20B00930B0FD90002374FC
:10094D0032F0D2B4D2B5C2B6D2B720B3137F147E73
:10095D0000120F1E20B30930B3FD900023743DF03B
:10096D0020B2137F147E00120F1E20B20930B2FD8B
:10097D009000237439F020B1137F147E00120F1EE6
:10098D0020B10930B1FD9000237436F020B0137FF3
:10099D00147E00120F1E20B00930B0FD900023749C
:1009AD0033F0D2B4D2B5D2B6C2B720B3137F147E12
:1009BD0000120F1E20B30930B3FD900023742FF0E9
:1009CD0020B2137F147E00120F1E20B20930B2FD2B
:1009DD009000237478F020B1137F147E00120F1E47
:1009ED0020B10930B1FD900023742DF020B0137F9C
:1009FD00147E00120F1E20B00930B0FD900023743C
:070A0D002BF0900023E0FF35
:010A140022BF
:1005B100E709F608DFFA8046E709F208DFFA803E2C
:1005C10088828C83E709F0A3DFFA8032E309F60819
:1005D100DFFA8078E309F208DFFA807088828C8381
:1005E100E309F0A3DFFA806489828A83E0A3F60835
:1005F100DFFA805889828A83E0A3F208DFFA804C0F
:1006010080D280FA80C680D4806980F280338010E5
:1006110080A680EA809A80A880DA80E280CA80334E
:1006210089828A83ECFAE493A3C8C582C8CCC583C6
:10063100CCF0A3C8C582C8CCC583CCDFE9DEE78096
:100641000D89828A83E493A3F608DFF9ECFAA9F015
:10065100EDFB2289828A83ECFAE0A3C8C582C8CC6B
:10066100C583CCF0A3C8C582C8CCC583CCDFEADE84
:10067100E880DB89828A83E493A3F208DFF980CCE6
:1006810088F0EF60010E4E60C388F0ED2402B404DF
:100691000050B9F582EB2402B4040050AF23234586
:0606A100822390060173A4
:1006A700BB010CE58229F582E5833AF583E0225008
:1006B70006E92582F8E622BBFE06E92582F8E22252
:0D06C700E58229F582E5833AF583E493226C
:1006D400F8BB010DE58229F582E5833AF583E8F05C
:1006E400225006E92582C8F622BBFE05E92582C808
:0206F400F222F0
:1006F600E88FF0A4CC8BF0A42CFCE98EF0A42CFCA3
:100706008AF0EDA42CFCEA8EF0A4CDA8F08BF0A420
:100716002DCC3825F0FDE98FF0A42CCD35F0FCEB7F
:100726008EF0A4FEA9F0EB8FF0A4CFC5F02ECD3944
:0F073600FEE43CFCEAA42DCE35F0FDE43CFC22B1
:100DCC00C2D5E830E70FB2D5E4C39BFBE49AFAE452
:100DDC0099F9E498F8EC30E717B2D5120E02120725
:100DEC00CBE4C39BFBE49AFAE499F9E498F880030A
:100DFC001207CB30D50DE4C39FFFE49EFEE49DFDAE
:040E0C00E49CFC2244
:0D074500CFF4CFCEF4CECDF4CDCCF4CC2249
:0C075200ECF0A3EDF0A3EEF0A3EFF0221A
:10075E00A8828583F0D083D0821207751207751296
:10076E000775120775E473E493A3C583C5F0C583BB
:10077E00C8C582C8F0A3C583C5F0C583C8C582C8E5
:01078E002248
:10078F0075F008758200EF2FFFEE33FECD33CDCC21
:10079F0033CCC58233C5829BED9AEC99E5829840A4
:1007AF000CF582EE9BFEED9AFDEC99FC0FD5F0D681
:1007BF00E4CEFBE4CDFAE4CCF9A88222B800C1B9AB
:1007CF000059BA002DEC8BF084CFCECDFCE5F0CBE9
:1007DF00F97818EF2FFFEE33FEED33FDEC33FCEB22
:1007EF0033FB10D703994004EB99FB0FD8E5E4F9DD
:1007FF00FA227818EF2FFFEE33FEED33FDEC33FCCA
:10080F00C933C910D7059BE99A4007EC9BFCE99ABD
:10081F00F90FD8E0E4C9FAE4CCFB2275F010EF2F02
:10082F00FFEE33FEED33FDCC33CCC833C810D70702
:10083F009BEC9AE899400AED9BFDEC9AFCE899F83D
:0E084F000FD5F0DAE4CDFBE4CCFAE4C8F922D0
:00000001FF
