:100DAF00312E2020205620322E2020205600332E88
:100DBF002020205620342E2020205600252E32664B
:010DCF000023
:080EE3007F147E71DEFEDFFCCE
:010EEB0022E4
:100A4900120E857BFF7A0D79AF7D017F01120D8C26
:100A59007BFF7A0D79BD7D017F02120D8CE4FF12B7
:100A69000B747549FF754A0D754BCB85004F850091
:100A79004E85004D85004C7B007A0079221206369E
:100A89007B007A0079227D037F01120D8C7F011290
:100A99000B74AC07E41200ADE4FBFA794C7842120E
:100AA90000068F3D8E3C8D3B8C3A7549FF754A0D8A
:100AB900754BCB85004F85004E85004D85004C7BDD
:100AC900007A0079271206367B007A0079277D0A99
:100AD9007F01120D8C7F02120B74AC07E41200AD7A
:100AE900E4FBFA794C78421200068F418E408D3F23
:100AF9008C3E7549FF754A0D754BCB85004F8500B6
:100B09004E85004D85004C7B007A00792C12063603
:100B19007B007A00792C7D037F02120D8C7F0312F2
:100B29000B74AC07E41200ADE4FBFA794C7842127D
:100B390000068F458E448D438C427549FF754A0DD9
:100B4900754BCB85004F85004E85004D85004C7B4C
:100B5900007A0079311206367B007A0079317D0AF4
:0B0B69007F02120D8C120EE3020A66E0
:060E9900C2918F80D2A57A
:080E9F007F027EEFDEFEDFFCA6
:010EA7002228
:0A0ECF00C290120E99C2A5020E9FF8
:100DD000CFCDCFCECCCE1205357C007D0A120535A5
:040DE000ED2430FFCF
:0A0DE400D290120E99C2A5020E9FD4
:100E5A00AE07BE0104ED148006BE0209ED243F442C
:060E6A0080FF120ECF22F2
:100E85007F38120ECF7F0C120ECF7F06120ECF7F4A
:040E950001020ECF79
:0A0ED900AC03120E5AAF04020DE440
:060D8C008B468A478948EE
:100D9200120E5AE4FDAB46AA47A9488D827583001C
:0C0DA2001204E4FF6006120DE40D80E96D
:010DAE002222
:0C0CB0007F0AEA24FFFDE434FFFC7E0014
:080CBC008E6C8F6D8C6E8D6F44
:100CC4007F017E00E4FBEBC3956FE56E6480F874EE
:0E0CD4008098500AAC6CAD6D1205230B80E8C1
:010CE20022EF
:040DEE008A118B12C9
:100DF200120E5AAA13EAD39400400D120CB0AC1191
:080E0200AD12120DD01A80EDB3
:010E0A0022C5
:100BCB00120E5AC3EA64809480400B7F2B120DE403
:100BDB008A0D8B0E800E7F2D120DE4C3E49BF50E58
:100BEB00E49AF50DAA0CEAD39400400D120CB0ACAC
:090BFB000DAD0E120DD01A80EDB3
:010C040022CD
:040C3F008A168B176F
:100C4300120E5AAA18EAD3940040297F10120CB24C
:100C5300AC16AD17CFCDCFCECCCE120535EF540F9A
:100C6300FEC3940AEE5004243080022437FF120D91
:040C7300E41A80D12E
:010C7700225A
:040C78008A1B8B1C2C
:100C7C00120E5AAA1DEAD394004028EA24FFFDE480
:100C8C0034FFFC7F027E00120CBCAC1BAD1CCFCD24
:100C9C00CFCECCCE120535EF54012430FF120DE42B
:030CAC001A80D2D9
:010CAF002222
:040E2800D2977F05D9
:100E2C00000000000000000000000000000000AE08
:060E3C00071FEE70EB221F
:0F0EA800D292120E28C2927F05120E2CC29722F0
:0C0EB700C292120E28D2927F05020E2C6F
:020D1500AD0728
:100D1700E4FCC2977F05120E2CED30E704D29280D7
:100D270002C2927F05120E2CD297ED25E0FD7F05BA
:090D3700120E2C0CBC08DBC29763
:010D40002290
:100E0B00E4FC120E28ED25E0FD309203430501C2F0
:0C0E1B00977F05120E2C0CBC08E8AF05F8
:010E270022A8
:100D6800AB05120EA87FA0120D15120D7AAF031253
:020D78000D1557
:100D7A00120E28A292E433FDC2977F05120E2CAF01
:010D8A000563
:010D8B002245
:100E4200C297EF24FF92927F05120E2C120E28C237
:080E520097D2927F05020E2CDD
:020B7400AB07CD
:100B7600E4F546F547120EA87F90120D6F120EA8E7
:100B86007F91120D15120D7AE547C39404502B126E
:100B96000E0B8F46AC46E41200ADE4FBFA794C78B6
:100BA60042120006AB470547EB25E025E02400F896
:100BB600120598E4FF120E4280CE7F01120E4212F9
:040BC6000EB7AF4671
:010BCA002208
:100E7000AB07120EA87F90120D15120D7A7F41124A
:050E80000D6F020EB72A
:100C05008B628A638964120D68120EA87FA1120D8A
:100C150015120D7AAF661566EF601C120E0BAB62EE
:100C2500AA63A964EF120511E5666004E4FF80027A
:0A0C35007F01120E4280DD020EB7AF
:100CE3008B678A688969120D68AF6B156BEF601F9C
:100CF300AB670569E569AA687002056814F912040F
:100D0300CBFF120D15120D7A7F14120E2C80DA020E
:020D13000EB719
:10000300020120EC5D046005E85904700302011647
:100013001200E1580460F6EC4860F2EC7004FDFE57
:10002300FF22C860DB2481C85009C39860025006D0
:1000330002011D9850CAF582E9294B4A7005AB822B
:1000430002010C75F0007C1A7880C3EF9BEE9AEDE9
:1000530099400DC3EF9BFFEE9AFEED99FDE842F048
:10006300DC23ACF0D0E0FFD0E0FED0E0FDAB82209B
:10007300E7101BEB60BAEC2CFCEF33FFEE33FEED25
:1000830033FD0200F8E803F830E705C0F075F0002F
:10009300EF2FFFEE33FEED33FD40B830E7C280AA09
:1000A30075F020800E75F010800575F0087D007ED8
:1000B300007F003392D530D50312058AEC3340100C
:1000C300EF33FFEE33FEED33FDEC33FCD5F0ED22E1
:0E00D300E5F0247EA2D513CC92E7CDCEFF221D
:1005DA00E55D2449F8E6055D227846300702784948
:1005EA00E475F0011205A40204CB2000EB7F2ED2A1
:1005FA00008018EF540F2490D43440D4FF30040BF9
:10060A00EF24BFB41A0050032461FFE55E600215AF
:10061A005E0561E5617002056030070D7846E47594
:10062A00F0011205A4EF020511020D417403D2076D
:10063A008003E4C207F55D8B468A478948E4F55E84
:10064A00F560F561E55E60077F2012061580F57595
:10065A005FFFC201C200C202C203C205C206C208CB
:10066A001205E3FF700D3007057F00120626AF6101
:10067A00AE6022B4255FC2D5C2041205E3FF24D0BE
:10068A00B40A00501A75F00A785E30D50508B6FF2C
:10069A000106C6A426F620D5047002D20380D92406
:1006AA00CFB41A00EF5004C2E5D204020913D201F2
:1006BA0080C6D20080C0D20280BCD2D580BAD20510
:1006CA0080B47F201206152002077401B55E00402F
:1006DA00F11205DAFF12061502064ED208D206807A
:1006EA00951205DAFB1205DAFA1205DAF94A4B70A5
:1006FA0006790A7A0A7BFF20022EE55E602A7E00CE
:10070A008E827583001204E460060EEE655F70F057
:10071A00C2D5EBC0E0EAC0E0E9C0E0EE120973D04E
:10072A00E0F9D0E0FAD0E0FB1204CBFF60AAEBC0FC
:10073A00E0EAC0E0E9C0E0120615D0E02401F9D0F1
:10074A00E03400FAD0E0FBE55F0460DCD55FD980D5
:10075A0087D20280A212095660F7E55F700104127F
:10076A00012BA95F600DE55F600914F55F1209FDB1
:10077A00EF60F3EA30E702F404C3995077EAF4250C
:10078A005F0430E701E404F55F800D12095660C189
:10079A00EA055F255F12012BEA785CF630E701E48F
:1007AA00255F04D55F0420050114120973E4C0E033
:1007BA001209FD785CE6601320E70714F61205FDBE
:1007CA00802204F6D0E014C0E07F001205FDE55F48
:1007DA0060071205F4155F800B3005031205F4D08B
:1007EA00E002064ED0E00480C512095660A0E55F1B
:1007FA000412012B785CEAF6E55F20050260010429
:05080A00240412097333
:10080F0074FF04C0E01209FD1205FDE55F2005022B
:10081F0060031205F4D0E0B55FE87F451206077854
:10082F005CE67F2B30E7047F2DF404C0E012061541
:10083F00D0E075F00A84C0F01205FED0E01205FE7C
:10084F0002064E791080027908C206C2088008D2CB
:10085F00D5790A8004790AC2D5E55F047002F55F85
:10086F00E4FAFDFEFF1205DAFC7B082001131205E6
:10087F00DAFD7B1030000A1205DAFE1205DAFF7B73
:10088F0020EC3382D592D55013C3E43000069FFF7E
:10089F00E49EFEE42001039DFDE49CFCE4CBF8C242
:1008AF0001EC700CCFCECDCCE824F8F870F38017A4
:1008BF00C3EF33FFEE33FEED33FDEC33FCEB33FBD5
:1008CF00994002FB0FD8E9EB300105F8D0E0C4489E
:1008DF00B201C0E00AEC4D4E4F78207B0070C2EAA7
:1008EF00B55F0040BCC0E0120975D0F0D0E0200128
:1008FF0004C4C0E0C4B201C0F01205FED0F0D5F0C0
:10090F00EB02064E1205B406EB5308525806BC4CC8
:10091F0006B84208564F085E44085E4906D14308A0
:10092F00645507954607F345075F470A2A5006C0E7
:10093F002D06C42E06E72B06C82306E5200A132A28
:10094F00068048000006DFE55FB4FF03755F0612FF
:10095F0005DAFC1205DAFD1205DAFE1205DAFF7868
:10096F005502015A790AA2D5200314300509B9108E
:10097F00020404B9080104A2D52006025001042084
:10098F0002689202B55E005034C0E07F2030031938
:10099F007F30A20272067205500F1209CCC202C23A
:1009AF0006C205C2087F30800F300503E9C0E01290
:1009BF000615300503D0E0F9D0E0B55ECC30051751
:1009CF007F30B9100C1206157F583004077F7880DE
:1009DF0003B908031206153002057F2D0206157F95
:1009EF00202008F87F2B2006F322920280CF7F0071
:1009FF00B4070050052455F8E6FF22286E756C6C7D
:100A0F002900D2011205DA3001F8C201785E30D523
:100A1F000108F60206802D504349581205DA2403C7
:100A2F00B405004001E4900A2593120606743A12A9
:0A0A3F000606D203755E0402085299
:1000E100E9D2E7C933E833F892D5EDD2E7CD33EC65
:0700F10033FC5002B2D522DE
:1000F800EC30E7100FBF000C0EBE00080DBD000469
:100108000BEB6014A2D5EB13FCED92E7FD2274FF14
:10011800FCFDFEFF22E480F8A2D574FF13FC7D806D
:03012800E480EF81
:10012B00F920E72824F950037907E4F42402FB189B
:10013B00DBFDE624FB5014E9600DE4F618E604F64B
:0F014B00B40A08E4F6D9F57401F60A22C2D522E7
:10015A00ED33EC3392D5FA602AB4FF33EDC2E77B74
:10016A00FF60067A01797FE4227A01798820D50432
:10017A007A017983224E614E002B494E46002D4961
:10018A004E4600E47A08F608DAFC7B00740722E897
:10019A00C0E0ECC0E0EDC0E0EEC0E0EFC0E0EA7520
:1001AA00F010A4CAABF075F04DA42BFBE435F0FCBB
:1001BA00EA2410FAEB34C5FBEC34D9FCEDC2E7FFB4
:1001CA0075F056A4F42411C5F0F434C58FF0A42AAE
:1001DA00E5F03BE43CF620E71412048BD0E0FFD0B4
:1001EA00E0FED0E0FDD0E0FC1200068014F4041218
:1001FA00048BD0E0FFD0E0FED0E0FDD0E0FC12039B
:10020A0055D0E0F8E6FAEDD2E7CD33EC332482FBA1
:10021A00E4C3CF33CFCE33CECD33CD33DBF37B073D
:10022A0075F00A846004F6081B0AE5F0F6088FF0F8
:10023A00740AA4FFACF08EF0740AA42CFEACF05041
:10024A00010C8DF0740AA42CFDE435F0F608DBDE0F
:03025A0074072204
:10025D00020116E86480F8E933E83360110460F0B8
:10026D00ED33EC337009E8FCE9FDEAFEEBFF220407
:10027D0060DED3EB9FEA9EE99DE8C2E78CF0C2F702
:10028D0095F0400CE8CCF8E9CDF9EACEFAEBCFFBCE
:10029D001200E185D0F05804700320D5B3E8047046
:1002AD00075002B2D502012092D5EC0460F7E4CCE0
:1002BD00C0E0C398F8603B94186008400DD0E0FB97
:1002CD000200F8E4FBFAC9FC8028E830E406E4C932
:1002DD00FBE4CAFCE830E305E4C9CACBFCE85407EB
:1002ED006010F8C3E913F9EA13FAEB13FBEC13FCF6
:1002FD00D8F130F52FC3E49CFCEF9BFFEE9AFEED99
:10030D0099FDD0E0FBEF4E4D4C701222DB03020144
:10031D001DEC2CFCEF33FFEE33FEED33FDED30E73E
:10032D00EB0200F8EF2BFFEE3AFEED39FDD0E0FBCE
:10033D0050130BBB0003020120ED13FDEE13FEEF76
:08034D0013FFEC13FC0200F8A1
:10035500EC4D6011E8497017ED33EC3304600DE4A2
:10036500FCFFFEFD22E933E8330470F802011612A2
:1003750000E158046009E4CC2481500628500902A4
:10038500012028400302011DC0E0EB4A7044B980FA
:1003950006D0E0FB02010CEF4E701CBD8008EBFFA0
:1003A500EAFEE9FD80EBE98DF0A4FEE5F002043EEE
:1003B500E9CDF9EAFEEBFFEF89F0A4FCE5F0CE8983
:1003C500F0A42EFFE435F0CD89F0A42DFEE435F040
:1003D5008067EF4E7005BD80D780C3EF8BF0A4AC6E
:1003E500F0EE8BF0A42CFCE435F0F8EF8AF0A42CA9
:1003F500E5F038FCE433CB8DF0A42CFCE5F03BF8BC
:10040500EE8AF0A42CFCE5F038F8E433CF89F0A4AB
:100415002CFCE5F038CF3400CE89F0A42FFFE5F0B1
:100425003EFEE433C98DF0A42EFEE5F039CD8AF009
:10043500A42FFFE5F03EFEE43DFD33D0E0FB500781
:100445000BBB000F020120EC2CFCEF33FFEE33FE5B
:06045500ED33FD0200F88A
:10045B003F8000004120000042C80000447A0000A9
:10046B00461C400047C35000497424004B1896802B
:10047B004CBEBC205A0E1BCA6753C21C749DC5AE22
:10048B00FB60065407601C23231204B9EB5438603D
:10049B00091204A51204B4120355ECF8EDF9EEFAA7
:1004AB00EFCB22EB1204B480F1543803241C9004DC
:1004BB005BFE93FC0EEE93FD0EEE930ECE93FF229E
:03000000020EC32A
:0C0EC300787FE4F6D8FD75816F020A49C3
:1004CB00BB010689828A83E0225002E722BBFE022F
:0904DB00E32289828A83E4932262
:1004E400BB010CE58229F582E5833AF583E02250CD
:1004F40006E92582F8E622BBFE06E92582F8E22217
:0D050400E58229F582E5833AF583E4932230
:10051100BB010689828A83F0225002F722BBFE01C9
:02052100F322C3
:10052300EF8DF0A4A8F0CF8CF0A428CE8DF0A42EEC
:02053300FE22A6
:10053500BC000BBE0029EF8DF084FFADF022E4CCAA
:10054500F875F008EF2FFFEE33FEEC33FCEE9DEC73
:10055500984005FCEE9DFE0FD5F0E9E4CEFD22EDB9
:10056500F8F5F0EE8420D21CFEADF075F008EF2F03
:10057500FFED33FD4007985006D5F0F222C398FDF4
:050585000FD5F0EA2291
:0E058A00C3E49FFFE49EFEE49DFDE49CFC2282
:0C059800ECF608EDF608EEF608EFF6228F
:1005A400FAE6FB0808E6F925F0F618E6CA3AF62258
:1005B400D083D082F8E4937012740193700DA3A3D6
:1005C40093F8740193F5828883E4737402936860EA
:0605D400EFA3A3A380DFEA
:100D4100EFB40A07740D120D4C740A309811A8996A
:100D5100B8130CC2983098FDA899C298B811F63012
:070D610099FDC299F59922EA
:00000001FF
