:0D036100080C000000000000000001140066
:10034100E50B701B750B0112043F8F0AE509650A65
:10035100550AF508850A09E50A1470037514012286
:05000300AF1402031E12
:10045600538E7F5389F0758A18758CFCC28DD28CA9
:05046600D2A9D2AF2273
:03000B0002046B81
:10046B00C0E0C0D0050BE50BB43203750B00D0D048
:03047B00D0E0329C
:10039F007580FFE5A0541F4480F5A053A01FE4F51E
:0D03AF0080E5A0541F44A0F5A053A01F221C
:0C049F007F207E857D57DDFEDEFCDFFA4D
:0104AB00222E
:0B04B80012039F12034112000380F8A2
:0403D900D2A07F052A
:1003DD00000000000000000000000000000000AE62
:0603ED00071FEE70EB2279
:0F049000D2A11203D9C2A17F051203DDC2A0229F
:0C04AC00C2A11203D9D2A17F050203DD1A
:0202A800AD07A0
:1002AA00E4FCC2A07F051203DDED30E704D2A18091
:1002BA0002C2A17F051203DDD2A0ED25E0FD7F0574
:0902CA001203DD0CBC08DBC2A02C
:0102D3002208
:1003BC00E4FC1203D9ED25E0FD30A103430501C295
:0C03CC00A07F051203DD0CBC08E8AF05A3
:0103D8002202
:10047E001203D9A2A1E433FDC2A07F051203DDAFA2
:01048E000568
:01048F00224A
:10042700C2A0EF24FF92A17F051203DD1203D9C2F8
:08043700A0D2A17F050203DD44
:0403F3007F057E0004
:1003F700EF1FAA0670011E4A600BE4FDEDC3940CC3
:0504070050EE0D80F72E
:01040C0022CD
:02038100A907CA
:10038300E4FBC294E91392941203F3D294E9C313E6
:0C039300F90BBB08ED7F057E000203F7AC
:10040D00E4FBC294ECC313FCD294309403430480F8
:09041D001203F30BBB08EBAF0462
:0104260022B3
:1002D400C200D2947F0C7E001203F7C2947F507E3A
:1002E400001203F7D2947F0A7E001203F7A29492BD
:0602F400001203F3A2005A
:0102FA0022E1
:10027100E4F9FF1202D47FCC1203817F441203817F
:100281001202D47FCC1203817FBE12038112040DAE
:10029100A90712040DEFAD01FCEC120119E4FBFA00
:0702A1007980783D02000E98
:10043F00E4FF20B3027F0420B2027F0320B1027FCA
:06044F000220B0027F0153
:010455002284
:10036E000115000116FF0117000118FF0119000108
:02037E001AFF64
:10023600ED4C600FA8077401088002C333D8FC4256
:1002460015800EA8077401088002C333D8FCF45247
:1002560015E51565166013E515F4F580E5A0541F40
:0A0266004480F5A053A01F85151673
:01027000226B
:1002FB00EF600543174080035317BFE51765186080
:10030B0011851780E5A0541F44A0F5A053A01F85AD
:02031B001718B1
:01031D0022BD
:10031E00EF600543191080035319EFE519651A6054
:10032E0011851980E5A0541F44A0F5A053A01F8588
:02033E00191A8A
:01034000229A
:10000E00EC4D6011E8497017ED33EC3304600DE4EC
:10001E00FCFFFEFD22E933E8330470F8020187127B
:10002E00015258046009E4CC24815006285009027C
:10003E00019128400302018EC0E0EB4A7044B98062
:10004E0006D0E0FB02017DEF4E701CBD8008EBFF79
:10005E00EAFEE9FD80EBE98DF0A4FEE5F00200F783
:10006E00E9CDF9EAFEEBFFEF89F0A4FCE5F0CE89CD
:10007E00F0A42EFFE435F0CD89F0A42DFEE435F08A
:10008E008067EF4E7005BD80D780C3EF8BF0A4ACB8
:10009E00F0EE8BF0A42CFCE435F0F8EF8AF0A42CF3
:1000AE00E5F038FCE433CB8DF0A42CFCE5F03BF806
:1000BE00EE8AF0A42CFCE5F038F8E433CF89F0A4F6
:1000CE002CFCE5F038CF3400CE89F0A42FFFE5F0FC
:1000DE003EFEE433C98DF0A42EFEE5F039CD8AF054
:1000EE00A42FFFE5F03EFEE43DFD33D0E0FB5007CC
:1000FE000BBB000F020191EC2CFCEF33FFEE33FE35
:06010E00ED33FD02016962
:1001140075F020800E75F010800575F0087D007E66
:10012400007F003392D530D50312019CEC3340108C
:10013400EF33FFEE33FEED33FDEC33FCD5F0ED226F
:0E014400E5F0247EA2D513CC92E7CDCEFF22AB
:10015200E9D2E7C933E833F892D5EDD2E7CD33ECF3
:0701620033FC5002B2D5226C
:10016900EC30E7100FBF000C0EBE00080DBD0004F7
:100179000BEB6014A2D5EB13FCED92E7FD2274FFA3
:10018900FCFDFEFF22E480F8A2D574FF13FC7D80FC
:03019900E480EF10
:030000000201AA50
:0C01AA00787FE4F6D8FD7581200201F199
:0E019C00C3E49FFFE49EFEE49DFDE49CFC2274
:1001B6000204B8E493A3F8E493A34003F68001F2A3
:1001C60008DFF48029E493A3F85407240CC8C3334A
:1001D600C4540F4420C8834004F456800146F6DF19
:1001E600E4800B0102040810204080900361E47E45
:1001F600019360BCA3FF543F30E509541FFEE4930E
:10020600A360010ECF54C025E060A840B8E493A3D4
:10021600FAE493A3F8E493A3C8C582C8CAC583CAFF
:10022600F0A3C8C582C8CAC583CADFE9DEE780BEB7
:01038000007C
:00000001FF
