:1006720020200F0000000000000000000000000029
:100682000000000000000000000000000000000068
:07069200000000020D000052
:10016500E50B60030202AB750B011204488F0AE52B
:1001750009650A550AF508850A09643D6036E508EA
:1001850064466030E5086462602AE50864436024DB
:10019500E5086463601E740F250EF8A6087B007AD7
:1001A50000790F7D017F01120647050EE50E70618E
:1001B500050D805DE508B443028005E508B46311CB
:1001C5007F0112061A7F0212061AE4F50DF50E805C
:1001D50040E5086462702E7F0112061AC3E50E948D
:1001E50001E50D9400400F740E250EF8E4F6E50EBA
:1001F500150E7002150D7B007A00790F7D017F01C8
:10020500120647800CE508B43D07740F250EF876F5
:100215003DE508643D6035E5086446602FE5086402
:10022500626029E50864436023E5086463601D7422
:100235000F250EF8A6087B007A00790F7D017F0156
:10024500120647050EE50E705D050D22E508B4435F
:10025500028005E508B463107F0112061A7F0212B9
:10026500061AE4F50DF50E22E5086462702C7F018F
:1002750012061AC3E50E9401E50D9400400F740EA5
:10028500250EF8E4F6E50E150E7002150D7B007AC5
:1002950000790F7D017F01020647E508B43D07742B
:0702A5000F250EF8763D2243
:1006CE00438E805389F0758ACD758CD4C28DD28CB1
:0506DE00D2A9D2AF22F9
:03000B000206E307
:1006E300C0E0C0D0050BE50BB46403750B00D0D09C
:0306F300D0E03222
:0B0709001206CE12069A12016580FB5A
:100448007F46C2B4D2B5D2B6D2B720B3027F30202D
:10045800B2027F3720B1027F3420B0027F31D2B49C
:10046800C2B5D2B6D2B720B3027F4320B2027F38DA
:1004780020B1027F3520B0027F32D2B4D2B5C2B6E5
:10048800D2B720B3027F3D20B2027F3920B1027F6C
:100498003620B0027F33D2B4D2B5D2B6C2B720B3B9
:1004A800027F2F20B2027F2A20B1027F2D20B002C6
:0204B8007F2B98
:0104BA00221F
:1006F600E47D027CC7DCFEDDFCEF1F70011E144E9C
:0207060070EF92
:0107080022CE
:0D03CC00E4FAF9F8120564EB2430FD7F021D
:1003D900BF0106C290C2918004D290C291ED30E76C
:1003E90004D2878002C287ED30E604D2868002C239
:1003F90086ED30E504D2858002C285ED30E404D271
:10040900848002C284ED30E304D2838002C283ED8A
:1004190030E204D2828002C282ED30E104D28180CE
:1004290002C281ED30E004D2808002C280D2A57F71
:0F043900017E001206F6C2A57F017E000206F6C4
:1006B600AE05BF0104EE148006BF020BEE243F44D4
:0806C60080FD7F011203D9221F
:10069A007D387F011203D97D0C7F011203D97D06B3
:0C06AA007F011203D97D017F010203D9FA
:0A0714001206B6AD037F020203D9FE
:060647008B578A58895907
:10064D00E4F55A1206B6E4F55AAB57AA58A95985DE
:10065D005A8275830012000EFD60097F021203D9C4
:04066D00055A80E5C5
:010671002266
:0B04BB007F0A24FFFDE434FFFC7E00FC
:0804C6008E448F458D828C836A
:1004CE00E4F546754A01F549F548F547F546C3E5A5
:1004DE00469582E5836480F87480985021AE44AFCF
:1004EE0045EE3395E0FDFCAB4AAA49A948A8471250
:1004FE00003B8F4A8E498D488C47054680D0AF4AC7
:06050E00AE49AD48AC4708
:0105140022C4
:1005E800E4F5431206B6854243E543D3940040211F
:1005F800E5431204BBA804A905AA06AB07AF41AEA0
:1006080040AD3FAC3E1205647B0A1203CC15438013
:01061800D809
:0106190022BE
:1002AC00E4F536F537F9753B01F53AF539F53812C1
:1002BC0006B6AF34AE33AD32AC31EC334002801EF7
:1002CC007D2D7F021203D9E53424FFFFE53334FF83
:1002DC00FEE53234FFFDE53134FFFC12008A8F3B22
:1002EC008E3A8D398C38853537E537D394004043B9
:1002FC00E5371204BBA804A905AA06AB07AF3BAEB1
:10030C003AAD39AC38120564E47B0AFAF9F81205F7
:10031C0064EB2430F9D394304009E9D39439500379
:10032C00753601E536B40107AD017F021203D9150C
:03033C003780B651
:01033F00229B
:040515008A4D8B4E32
:10051900E4F550FB1206B6854F50E550D3940040E0
:1005290039E5507F101204BDA804A905AA06AB0736
:10053900AE4DAF4EE4FCFD120564E47B10FAF9F808
:10054900120564EBC3940AEB50042430800224376B
:0A055900FD7F021203D9155080C087
:010563002275
:0405A8008A538B5493
:1005AC00E4F5561206B6855556E556D39400402B05
:1005BC00E55624FFFDE434FFFC7F027E001204C6E6
:1005CC00A804A905AA06AB07AE53AF54E4FCFD1270
:0B05DC0005647B021203CC155680CE94
:0105E70022F1
:10061A00E4FBBF01137D807F011203D97D207F0295
:10062A001203D90BBB10F5227DC07F011203D9E456
:0C063A00FB7D207F021203D90BBB10F5E2
:010646002291
:03000000020340B8
:0C034000787FE4F6D8FD75815A0203872F
:10000E00BB010CE58229F582E5833AF583E02250A7
:10001E0006E92582F8E622BBFE06E92582F8E222F1
:0D002E00E58229F582E5833AF583E493220B
:10003B00E88FF0A4CC8BF0A42CFCE98EF0A42CFC64
:10004B008AF0EDA42CFCEA8EF0A4CDA8F08BF0A4E2
:10005B002DCC3825F0FDE98FF0A42CCD35F0FCEB41
:10006B008EF0A4FEA9F0EB8FF0A4CFC5F02ECD3906
:0F007B00FEE43CFCEAA42DCE35F0FDE43CFC2273
:10056400C2D5E830E70FB2D5E4C39BFBE49AFAE4C2
:1005740099F9E498F8EC30E717B2D512059A12000D
:10058400D3E4C39BFBE49AFAE499F9E498F8800372
:100594001200D330D50DE4C39FFFE49EFEE49DFD1D
:0405A400E49CFC22B5
:0D008A00CFF4CFCEF4CECDF4CDCCF4CC220B
:10034C00020709E493A3F8E493A34003F68001F2B7
:10035C0008DFF48029E493A3F85407240CC8C333B2
:10036C00C4540F4420C8834004F456800146F6DF81
:10037C00E4800B0102040810204080900672E47E99
:10038C00019360BCA3FF543F30E509541FFEE49376
:10039C00A360010ECF54C025E060A840B8E493A33D
:1003AC00FAE493A3F8E493A3C8C582C8CAC583CA68
:1003BC00F0A3C8C582C8CAC583CADFE9DEE780BE20
:010699000060
:1000970075F008758200EF2FFFEE33FECD33CDCC20
:1000A70033CCC58233C5829BED9AEC99E5829840A3
:1000B7000CF582EE9BFEED9AFDEC99FC0FD5F0D680
:1000C700E4CEFBE4CDFAE4CCF9A88222B800C1B9AA
:1000D7000059BA002DEC8BF084CFCECDFCE5F0CBE8
:1000E700F97818EF2FFFEE33FEED33FDEC33FCEB21
:1000F70033FB10D703994004EB99FB0FD8E5E4F9DC
:10010700FA227818EF2FFFEE33FEED33FDEC33FCC8
:10011700C933C910D7059BE99A4007EC9BFCE99ABC
:10012700F90FD8E0E4C9FAE4CCFB2275F010EF2F01
:10013700FFEE33FEED33FDCC33CCC833C810D70701
:100147009BEC9AE899400AED9BFDEC9AFCE899F83C
:0E0157000FD5F0DAE4CDFBE4CCFAE4C8F922CF
:00000001FF
