:1000E00020202044533138423230204F4B202020F2
:1000F0000020202020202020202020202020202020
:1001000020002044533138423230202045525230B2
:100110005220002020504C45415345204348454340
:040120004B20200050
:0E034D0002120000080900000000000000007D
:09023E007F381202A67F057E0044
:10024700EF1FAA0670011E4A600FE4FDEDC394FA82
:0902570050EE000000000D80F3E0
:01026000227B
:10030A00C290D2A500000000E580339200C2A5A2E7
:01031A0000E2
:01031B0022BF
:1002A600C290C2A500008F8000000000D2A5000009
:0B02B6000000C2A57F057E0002024789
:1002C100D290C2A58F8000000000D2A500000000DE
:0902D100C2A57F057E0002024770
:1001EB00C2917F0F7E001202477F011202A61202FC
:1001FB003E12023E12023E7F0C1202407F0612029A
:0D020B00407F011202A67F057E000202471F
:07035C00EF4480FF0202A63E
:06032D00D2A27F087E0051
:0A033300EF1F70011E144E70F72238
:1002610012032DC2A27F5A7E0012033312032DA264
:10027100A292017F647E00120333D2A2A201E4FEA6
:0302810033FF2226
:0F033D00C2A2D2A2E4FF0FBF03FCA2A2E433FFCF
:01034C00228E
:10021800E4FDFC12033DEF600D7401A8050880029F
:10022800C333D8FC42047F047E001203330DBD089B
:05023800E2AF047E00AE
:01023D00229E
:10031C00C2A2BF0102D2A27F057E00120333D2A279
:01032C0022AE
:02028400AD07C4
:10028600E4FCEDA804088002C313D8FCFB53030169
:10029600AF0312031C0CBC08E97F057E0002033382
:1002DA001202617F33120284E4FB12021874092BA2
:0702EA00F8A6070BBB08F3A7
:0102F10022EA
:10015A00E4F511FF74092FF8E6FEE4FDE5116E20BF
:10016A00E008E511C313F511800C631118E511C3FA
:10017A0013F511431180EEC313FE0DBD08DE0FBF48
:04018A0008D2AF11D7
:01018E00224E
:10008F007C40E4FB74092BF8E6F50854F0C4540FD8
:10009F00F512D3940940047437800274302512F599
:1000AF0012AF0412035CAF121202C10CE508540F19
:1000BF00F513D3940940047437800274302513F577
:1000CF0013AF0412035CAF131202C10C0BBB08B4C5
:0100DF0022FE
:1002F200E4FD7F3C7E00120333B2A30DBD64F3D252
:08030200A37F407E9C0203333F
:10018F001201EBE4FF12035CE4FCEC9000E093FF40
:10019F0060061202C10C80F27F4012035CE4FCEC9B
:0D01AF009000F193FF60061202C10C80F277
:0101BC002220
:1001BD001201EBE4FF12035CE4FCEC90010293FFEF
:1001CD0060061202C10C80F27F4012035CE4FCEC6D
:0D01DD0090011393FF60061202C10C80F226
:0101EA0022F2
:100124007580FF75A0FF12018F1202DA12015AE5E1
:1001340011700612008F1202F220010C1202617F6C
:10014400E87E0312024780F11201BD12026112021D
:06015400F22001F780D04B
:03000000020003F8
:0C000300787FE4F6D8FD75812002004AE9
:10000F00020124E493A3F8E493A34003F68001F2E2
:10001F0008DFF48029E493A3F85407240CC8C333F2
:10002F00C4540F4420C8834004F456800146F6DFC1
:10003F00E4800B010204081020408090034DE47E01
:10004F00019360BCA3FF543F30E509541FFEE493B6
:10005F00A360010ECF54C025E060A840B8E493A37D
:10006F00FAE493A3F8E493A3C8C582C8CAC583CAA8
:10007F00F0A3C8C582C8CAC583CADFE9DEE780BE60
:01035B0000A1
:00000001FF
