:10052D0020202D20202D20200020203A20203A2090
:02053D0020009C
:10029A00120181E511FB7A00750C027D017F0112C2
:1002AA0004E6E512FB7A00750C027D047F01120454
:1002BA00E6E513FB7A00750C027D077F011204E65E
:1002CA00E514FB7A00750C027D017F021204E6E553
:1002DA0015FB7A00750C027D047F021204E6E5160E
:0D02EA00FB7A00750C027D077F020204E61E
:100480001205197BFF7A05792D7D017F011204A5E4
:100490007BFF7A0579367D017F021204A5120003E5
:0504A00012029A80FB2E
:09054E000711180C040A3500061F
:05056C00C292C29722BB
:0602F70025F0FDEC3EFCC9
:0602FD008C088D09AB071F
:10030300D292E4FD7E007401A805088005C333CEB4
:1003130033CED8F9FFEBF582EF558224FF92A7D2B3
:1003230097C2970DBD08DDE4FD7E007401A80508A2
:100333008005C333CE33CED8F9FFE5085EFEE50969
:100343005F4E24FF92A7D297C2970DBD08DBC292DE
:010353002287
:02035400AD07F3
:10035600E4F9430501D292FB7E007401A8030880EC
:1003660005C333CE33CED8F9FFEDF582EF5582249F
:10037600FF92A7C297D2970BBB08DDE4FBD297C2C8
:100386009730A70DA8037401088002C333D8FC4236
:0B039600010BBB08E8C292C2A7AF0138
:0103A1002239
:10000300E4FDFC7F8E1202FDE51175F00A8475F0A4
:1000130010A4FFAEF0E51175F00A84EF7F8C120295
:10002300F7E51275F00A8475F010A4FFAEF0E5123F
:1000330075F00A847C00EF7F881202F7E51375F0F0
:100043000A8475F010A4FFAEF0E51375F00A847C02
:1000530000EF25F0FDEC3EFC7F861202FDE51475F2
:10006300F00A8475F010A4FFAEF0E51475F00A846D
:100073007C00EF25F0FDEC3EFC7F841202FDE515CC
:1000830075F00A8475F010A4FFAEF0E51575F00A5B
:10009300847C00EF25F0FDEC3EFC7F821202FDE53F
:1000A3001675F00A8475F010A4FFAEF0E51675F02E
:1000B3000A847C00EF25F0FDEC3EFC7F801202FDFC
:1000C300E51775F00A8475F010A4FFAEF0E5177517
:1000D300F00A847C00EF25F0FDEC3EFC7F8A1202DF
:0A00E300FD7D807C007F8E0202FD8F
:100181007F8C120354EFC4540F75F00AA4FEEF5490
:100191000F2EF5117F88120354EFC4540F75F00A26
:1001A100A4FEEF540F2EF5127F86120354EFC454B0
:1001B1000F75F00AA4FEEF540F2EF5137F8412037E
:1001C10054EFC4540F75F00AA4FEEF540F2EF5142A
:1001D1007F82120354EFC4540F75F00AA4FEEF544A
:1001E1000F2EF5157F80120354EFC4540F75F00ADA
:1001F100A4FEEF540F2EF5167F8A120354EFC45458
:0C0201000F75F00AA4FEEF540F2EF51745
:01020D0022CE
:06053F00C2918F80D2A5DD
:080545007F027EEFDEFEDFFC09
:01054D00228B
:0A055800C29012053FC2A50205453E
:1004C800CFCDCFCECCCE12012C7C007D0A12012CD0
:0404D800ED2430FFE0
:0A04DC00D29012053FC2A5020545AB
:10050300AE07BE0104ED148006BE0209ED243F448C
:0605130080FF12055822D2
:100519007F381205587F0C1205587F061205587F3F
:04052900010205586E
:0A056200AC03120503AF040204DC31
:0604A5008B088A09890A98
:1004AB00120503E4FDAB08AA09A90A8D8275830026
:0C04BB001200EDFF60061204DC0D80E969
:0104C7002212
:0C044D007F0AEA24FFFDE434FFFC7E007F
:080459008E0D8F0E8C0F8D102B
:100461007F017E00E4FBEBC39510E50F6480F87417
:0E0471008098500AAC0DAD0E12011A0B80E8F7
:01047F00225A
:0404E6008A0A8B0BE8
:1004EA00120503AA0CEAD39400400D12044DAC0A7B
:0804FA00AD0B1204C81A80EDDD
:0105020022D6
:1003A200120503C3EA64809480400B7F2B1204DCA5
:1003B2008A1D8B1E800E7F2D1204DCC3E49BF51E6A
:1003C200E49AF51DAA1CEAD39400400D12044DAC28
:0903D2001DAD1E1204C81A80EDD5
:0103DB0022FF
:0403DC008A218B22C5
:1003E000120503AA23EAD3940040297F1012044F78
:1003F000AC21AD22CFCDCFCECCCE12012CEF540FFD
:10040000FEC3940AEE5004243080022437FF120405
:04041000DC1A80D1A1
:0104140022C5
:040415008A268B2781
:10041900120503AA28EAD394004028EA24FFFDE440
:1004290034FFFC7F027E00120459AC26AD27CFCDE4
:10043900CFCECCCE12012CEF54012430FF1204DCB4
:030449001A80D244
:01044C00228D
:0300000002020EEB
:0C020E00787FE4F6D8FD758128020255C7
:1000ED00BB010CE58229F582E5833AF583E02250C8
:1000FD0006E92582F8E622BBFE06E92582F8E22212
:0D010D00E58229F582E5833AF583E493222B
:10011A00EF8DF0A4A8F0CF8CF0A428CE8DF0A42EF9
:02012A00FE22B3
:10012C00BC000BBE0029EF8DF084FFADF022E4CCB7
:10013C00F875F008EF2FFFEE33FEEC33FCEE9DEC80
:10014C00984005FCEE9DFE0FD5F0E9E4CEFD22EDC6
:10015C00F8F5F0EE8420D21CFEADF075F008EF2F10
:10016C00FFED33FD4007985006D5F0F222C398FD01
:05017C000FD5F0EA229E
:10021A00020480E493A3F8E493A34003F68001F276
:10022A0008DFF48029E493A3F85407240CC8C333E5
:10023A00C4540F4420C8834004F456800146F6DFB4
:10024A00E4800B010204081020408090054EE47EF1
:10025A00019360BCA3FF543F30E509541FFEE493A9
:10026A00A360010ECF54C025E060A840B8E493A370
:10027A00FAE493A3F8E493A3C8C582C8CAC583CA9B
:10028A00F0A3C8C582C8CAC583CADFE9DEE780BE53
:0105570000A3
:00000001FF
