:100366003F065B4F666D7D077F6F777C395E7971DF
:01037600BFC7
:0F037700EF7F08A2E092A0D2A1C2A1C313DFF4CE
:010386002254
:0F0387007F08C313A2A092E7D2A1C2A1DFF4FFA7
:010396002244
:10032F00AE05C2A4C2A1D2A4120377AF06120377FF
:03033F00C2A42233
:10034200C2A4C2A1D2A4EF4401FF12037712038711
:02035200C2A443
:010354002286
:0F0397003000047D108002E4FD7F8E12032F22C0
:1002F400AC05AB07C200120397AF03EC75F00A8498
:10030400C454F0FEEC75F00A84E5F04EFD02032FB0
:100003007F80120342EF5470C4540F75F00AA4FEAC
:10001300EF540F2E1201797F82120342EF5470C402
:10002300540F75F00AA4FEEF540F2E900001120135
:100033008B7F84120342EF5470C4540F75F00AA4EB
:10004300FEEF540F2E90000212018B7F86120342A3
:10005300EF5470C4540F75F00AA4FEEF540F2E90A2
:10006300000412018B7F8A120342EF5470C4540FB1
:1000730075F00AA4FEEF540F2E90000312018B7F3C
:1000830088120342EF5470C4540F75F00AA4FEEFB4
:10009300540F2E90000512018B7F8C120342EF54F4
:1000A30070C4540F75F00AA4FEEF540F2E9000068F
:0300B30002018BBC
:1000B60090000612014C75F00A8490000712018B1D
:1000C60090000612014C75F00A84900008E5F012C3
:1000D600018B900009742D12018B90000512014CC2
:1000E60075F00A8490000A12018B90000512014CEB
:1000F60075F00A8490000BE5F012018B90000C74E9
:100106002D12018B90000412014C75F00A849000A8
:100116000D12018B90000412014C75F00A849000B8
:0D0126000EE5F012018B90000FE402018B3A
:1002240090000212014C75F00A8490001012018BA8
:1002340090000212014C75F00A84900011E5F0124E
:10024400018B900012743A12018B90000112014C40
:1002540075F00A8490001312018B90000112014C76
:1002640075F00A84900014E5F012018B9000157467
:100274003A12018B120133FF75F00A8490001612B2
:10028400018BEF75F00A84900017E5F012018B9052
:06029400000FE402018BE3
:100355007F80120342EF30E707E4FD7F801202F44D
:010365002275
:100314007F017E007D6E7C00ED1D70011CED4C7034
:0A032400F7EF1F70011EEF4E70EAA4
:01032E0022AC
:1001AD00AA05D2A77580FEC2A7E4F580D2A68F80DE
:1001BD00C2A6120314D2A77580FDC2A7E4F580D2A2
:1001CD00A68A80C2A6120314D2A77580FBC2A7E42B
:1001DD00F580D2A68B80C2A6120314D2A77580F724
:1001ED00C2A7E4F580D2A6854280C2A6120314D21E
:1001FD00A77580EFC2A7E4F580D2A6854380C2A67D
:10020D00120314D2A77580DFC2A7E4F580D2A685AC
:07021D004480C2A602031495
:10029A001203557D0A7F841202F47D367F82120290
:1002AA00F47D1E7F801202F47B007A007926120008
:1002BA00031200B612022485362185372285392396
:1002CA00853A24853C25A93DE52190036693FFE5FF
:1002DA002293FDE52393FBE52493F542E52593F567
:0A02EA0043E993F5441201AD80BE14
:030000000203A652
:0C03A600787FE4F6D8FD75814402029ACD
:10013300BB010689828A83E0225002E722BBFE02CA
:09014300E32289828A83E49322FD
:10014C00BB010CE58229F582E5833AF583E0225068
:10015C0006E92582F8E622BBFE06E92582F8E222B2
:0D016C00E58229F582E5833AF583E49322CC
:10017900BB010689828A83F0225002F722BBFE0165
:02018900F3225F
:10018B00F8BB010DE58229F582E5833AF583E8F0AA
:10019B00225006E92582C8F622BBFE05E92582C856
:0201AB00F2223E
:00000001FF
