:10000300750802750958E4F50AF50BF590C2A0C20C
:10001300A1C2A27590FFD2907F607EEA120085751F
:100023000A00750B01C3E50B9509E50A95085016FF
:10003300C290AF0BAE0A120085120078050BE50BD8
:1000430070E3050A80DFC290E50924FFF50BE5089C
:1000530034FFF50AD3E50B9400E50A940040B7C2D8
:1000630090AF0BAE0A120085120078E50B150B70EA
:05007300E3150A80DF27
:0D007800D290C3E509950BFFE508950AFE3F
:0A008500EF1F70011E144E70F722E9
:0300000002008F6C
:0C008F00787FE4F6D8FD75810B020003B9
:00000001FF
