:10056C0020323020202D20202D2020202020200063
:0D057C002020202020203A20203A202000BE
:090496007F541205537F057E001E
:10049F00D3EF9400EE940040147D6E7C00ED1D7040
:0D04AF00011CED4C70F7EF1F70E61E80E39E
:0104BC00221D
:0C05E700C2A37F647E0012049FD2A322F6
:1005A300C2B5C2B48F807F037E0012049FD2B47F92
:0905B300037E0012049FC2B42271
:08054B00FF1205A3EB2430FFB1
:10055300D2B5C2B48F807F037E0012049FD2B47FD2
:09056300037E0012049FC2B422C1
:10042200D2AFD2AAD28AC200E4F514F515750F0133
:10043200C2A6C2A7C2B4C2B77D207F0A1205127D2E
:10044200267F0B1205121200037F381205A37F0CC0
:100452001205A37F061205A37F011205A37F801256
:1004620005A3E4FBEB90056C93FF1205537F017E1D
:100472000012049F0BBB0FEC7FC01205A3E4FBEB41
:1004820090057C93FF1205537F017E0012049F0B9F
:03049200BB0BECB5
:010495002244
:0404BD00AD0C7F0AF9
:1004C100ED75F00A120529FBED75F00A120529AE4A
:1004D100F0AA06EF24C012054BEA2430FF020553AF
:0404E100AD127F09D0
:1004E500ED75F00A120529FBED75F00A120529AE26
:1004F500F0AA06EF248012054BEA2430FF020553CB
:10030D00AB077F8C1205A3EB14B407004003020367
:10031D009D90032C75F003A4C58325F0C58373024E
:10032D00034102034B0203580203660203720203E8
:10033D008002038E7F4D1204987F4F0203951204A5
:10034D00967F551204987F4502039A7F57120498A1
:10035D007F451204987F4480341204967F4812041E
:10036D00987F5580287F461204987F521204987FFB
:10037D0049801A7F531204987F411204987F54804C
:10038D000C7F531204987F551204987F4E1205531B
:01039D00223D
:1000160030012C30B00930B10630B20320B22012C4
:10002600049B30B00930B10630B20320B21130B0B3
:10003600FD30B1FA30B2F730B2F41205E7C2013042
:10004600B0030200FA12049B30B0030200FA051551
:10005600300008E515B40403751501750A0130B0C2
:10006600FD1205E7E51514B4080040030200FA90F6
:10007600008375F003A4C58325F0C5837302009B36
:100086000200A40200A80200AC0200B00200B40202
:1000960000B80200BF7FCA1205A37F0F80167FC774
:1000A60080127FC4800E7F8C800A7F8980067F86BF
:1000B60080027F831205A3803BE4F5157F0C1205B1
:1000C600A3E4F50AAD0CFF120512AD117F0212056D
:1000D60012AD137F04120512AD0F7F06120512AD85
:1000E600127F07120512AD0D7F08120512AD107FA3
:1000F60009120512E515700302029730B1030201D9
:10010600D27F017E0012049F30B1030201D230B1CA
:10011600FD1205E7E51514B4070040030201D2906D
:10012600013375F003A4C58325F0C5837302014826
:1001360002015902016E0201830201960201A70221
:1001460001BC050CE50CB43C03E4F50C1204BD7FC0
:10015600CA80760511E511B43C03E4F511AD117FB3
:10016600071204C17FC780610513E513B41803E4C1
:10017600F513AD137F041204C17FC4804C050FE54F
:100186000FB40803750F01AF0F12030D7F8C803972
:100196000512E512B420037512011204E17F89806D
:1001A60028050DE50DB40D03750D01AD0D7F061285
:1001B60004E57F8680130510E510B46403E4F510AA
:1001C600AD107F031204E57F831205A330B203024C
:1001D60002977F017E0012049F30B203020297301D
:1001E600B2FD1205E7E51514B407004003020297B5
:1001F60090020475F003A4C58325F0C5837302023B
:100206001902022A02023F0202540202630202702B
:10021600020281150CE50CB4FF03750C3B1204BDFC
:100226007FCA806A1511E511B4FF0375113BAD1144
:100236007F071204C17FC780551513E513B4FF036A
:10024600751317AD137F041204C17FC48040D50F08
:1002560003750F07AF0F12030D7F8C8031D5120384
:1002660075121F1204E17F898024D50D03750D0CCC
:10027600AD0D7F061204E57F8680131510E510B4D8
:10028600FF03751063AD107F031204E57F8312052B
:10029600A320B27212049B20B26CB20030B2FD12DF
:1002A60005E720002CE4F50A7FC01205A37F201283
:1002B60005537F201205537F0C1205A3AD0C7F0159
:1002C600120512AD117F03120512AD137F0502054B
:1002D600121205BC85080C850911850B137FC01207
:1002E60005A37F521205537F691205537FC312057A
:1002F600A3AD0B7F041204C1AD097F071204C1AD83
:07030600087F0A1204C12266
:0D0505000F1205120F1205120F1205120F32
:10051200C294D295D297D2968F80C295C2968D8080
:07052200D296D295D294227B
:10058900D295D297D296C2948F80C295C297758020
:09059900FFAF80D297D295D294F5
:0105A2002236
:10000300E4FDFF1205121205051205050F02051284
:1005BC007F011205898F087F031205898F097F053A
:0605CC001205898F0B22CD
:10039E00C2B61204221200163001141205E77F6451
:1003AE007E0012049F1205E77FF47E0112049FE582
:1003BE000A70E22000DF1200167F091205898F10E5
:1003CE007F081205898F0D7F071205898F127F0610
:1003DE001205898F0F7F041205898F137F02120574
:1003EE00898F11E4FF1205898F0C1204BDAD117FA8
:1003FE00071204C1AD137F041204C1AF0F12030D17
:10040E00AD107F031204E5AD0D7F061204E5120454
:04041E00E10203A351
:030013000205D211
:0705D200C0D075D000C00786
:0905D900D2017F0C1205898F1676
:0505E200D007D0D0326B
:030000000205F303
:0C05F300787FE4F6D8FD75812002039E9D
:10052900C2D530F707B2D563F0FF05F030E70CB25A
:10053900D5F4048463F0FF05F080018430D502F41A
:0205490004228A
:00000001FF
