:1001A100202053544F5057415443482020302020A1
:1001B100002020205757572E484A4D43552E434F74
:1001C1004D0054494D452020202020202020202072
:1001D10020200020424547494E20434F554E542090
:1001E1002031200020504155534520434F554E5456
:1001F100202032200020424547494E20434F554E92
:1002010054202033200020504155534520434F5561
:100211004E54202034200020202020202020202087
:080221002020202020202000F5
:10036900011000071100000000000000080800004B
:060379000000000000007E
:0A03A400EF1F70011E144E70F722C7
:10038000E4FDB2A37F467E001203A40DBDB4F3D2F8
:01039000A3C9
:010391002249
:09030C007F3812034E7F057E00CC
:10031500EF1FAA0670011E4A600FE4FDEDC394FAB3
:0903250050EE000000000D80F311
:01032E0022AC
:10039200C290D2A500000000E580339200C2A5A25F
:0103A200005A
:0103A3002237
:10034E00C290C2A500008F8000000000D2A5000060
:0B035E000000C2A57F0A7E000203A47D
:06032F00EC9001A193FF18
:10033500D290C2A58F8000000000D2A50000000069
:09034500C2A57F0A7E000203A498
:1002E400C2917F0F7E001203157F0112034E120389
:1002F4000C12030C12030C7F0C12030E7F01120369
:080304004E7F057E0002031587
:07000300EF4480FF02034EF1
:10022900E4FF74112FF8E62430FE74082FF8A606AF
:100239000FBF06EEE51775F00A842430F50FE517B0
:1002490075F00A84E5F02430F50E7F45120003AFFE
:100259000F120335AF0E1203357F3A120335AF0D76
:10026900120335AF0C1203357F3A120335AF0B1267
:100279000335AF0A1203357F3A120335AF0912036A
:0602890035AF0802033549
:10000E00758901758CDCE4F58AD2AFD2A91202E4AF
:10001E00E4FF120003E4FC12032F0CBC10F97F4026
:10002E00120003E4FCEC9001B293FF1203357F3C07
:10003E007E001203150CBC10EC7FE87E0312031534
:10004E007F40120003E4FCEC9001C393FF120335D2
:10005E000CBC10F330B6030200E605101203807FCD
:10006E00647E00120315E51024FE6022146037141E
:10007E00604C24037060D28CE4FF120003E4FCECAD
:10008E009001D493FF1203350CBC10F3804AC28C3E
:10009E00E4FF120003E4FCEC9001E593FF1203353C
:1000AE000CBC10F38032D28CE4FF120003E4FCECA3
:1000BE009001F693FF1203350CBC10F3801AC28C1C
:1000CE00E4FF120003E4FCEC90020793FF120335E9
:1000DE000CBC10F38002C28C20B726C28CE4F51043
:1000EE007C087811E4F608DCFCE4FF120003E4FC63
:1000FE0012032F0CBC10F91203807F647E001203D2
:07010E001512022902006234
:03000B0002028F5F
:10028F00C0E0C0D0758CDC758A000511E511B40A89
:10029F00057511000512E512B40A05751200051354
:1002AF00E513B40A057513000514E514B4060575B6
:1002BF0014000515E515B40A057515000516E516A4
:1002CF00B406057516000517E517B4180375170062
:0502DF00D0D0D0E03298
:03000000020115E5
:0C011500787FE4F6D8FD75812002015CC3
:1001210002000EE493A3F8E493A34003F68001F2E6
:1001310008DFF48029E493A3F85407240CC8C333DF
:10014100C4540F4420C8834004F456800146F6DFAE
:10015100E4800B0102040810204080900369E47ED2
:10016100019360BCA3FF543F30E509541FFEE493A3
:10017100A360010ECF54C025E060A840B8E493A36A
:10018100FAE493A3F8E493A3C8C582C8CAC583CA95
:10019100F0A3C8C582C8CAC583CADFE9DEE780BE4D
:01037F00007D
:00000001FF
