:1001D9000000000000000000FE102844820042FEDA
:1001E90002008080FE80807C8282827C0000007216
:1001F90092929C008080FE80803E4888483E00FEA6
:1002090090906E8080FE8080000000000000000059
:10021900000000000000000042FE0200F804020491
:10022900F8040204F80082FE8200FE40301804FE41
:1002390000FA0000000000000000000000000000BB
:1002490000009E9292F200F8040204F8040204F8F5
:100259000082FE8200FE40301804FE00FA00000011
:05026900000000000090
:10040600020E0006020CFFFF0232FFFF022E000062
:1004160002300000020A0000021400000134800CC1
:100426001600E000700038001C000E0007021000E5
:10043600030C2200E000700038001C000E000702CA
:03044600120000A1
:1005EF005389F0438901758A18758CFCC28DD28CA2
:0705FF00D2A9D2AFC2B9225C
:0402FA008E358F3678
:1002FE00E4F538F539120003E5364535704F20B177
:10030E00167F14FE12060630B1FD7F147E00120613
:10031E0006753500753601E4F537E5372538900159
:10032E00D993FD7C00AF371205CD0537E537C39461
:10033E000840E70539E539D3940F40BCE4F539059B
:0D034E0038E538D3943840B0E4F53880AB82
:01035B00227F
:10044A00E4F538F539120003E4F537E4F536E4F556
:10045A0035E535253890021993FD7C00AF35120534
:10046A00CD0535E535C3940840E70536E536C3942E
:10047A001040DB05380537E537C3942340CDE4F552
:01048A003839
:01048B00224E
:10048C00E4F538F539120003E4F537E4F536E4F514
:10049C0035E535253890024393FD7C00AF351205C8
:1004AC00CD0535E535C3940840E70536E536C394EC
:1004BC001040DB05380537E537C3942440CDE4F50F
:0104CC0038F7
:0104CD00220C
:1005A200751000751103E4F512F513F50E750F06BB
:1005B20075348074FFF50CF50DF532F533E4F52E44
:0B05C200F52FF530F531F514F515228A
:1003BB00753501E51125E02416F8E6FC08E6FDE4A9
:1003CB00FF1205CDE51325E02422F8E6FC08E6FD37
:1003DB007F071205CD753501E535650F7002E50E0A
:1003EB006005E4FDFC8005E534FD7C00AF351205AE
:0A03FB00CD0535E535C3940740DE5B
:0104050022D4
:10000E00E50F6401450E7072E534B4010EE511641E
:10001E000545106006753000753101E534B4041ED7
:10002E00E511640345106016E51164044510600E79
:10003E00E511640545106006753000753101E53433
:10004E00B4101EE511640145106016E511640245F9
:10005E0010600EE5116403451060067530007531B1
:10006E0001E534B44014E5114510600EE51164014C
:10007E0045106006753000753101E50F6406450EBA
:10008E007070E534B4800CE51345126006752E00D1
:10009E00752F01E534B4201CE51345126016E513E7
:1000AE0064014512600EE513640245126006752E5A
:1000BE0000752F01E534B4081EE513640245126085
:1000CE0016E51364034512600EE5136404451260D1
:1000DE0006752E00752F01E534B40216E51364047F
:1000EE004512600EE5136405451260067530007505
:0300FE00310122AB
:10035C0012000EE50D250FF50FE50C350EF50EE52B
:10036C0034B4800674FFF532F533E534B401067508
:10037C003200753301E533640145327006E53425EE
:10038C00E0F534E533B4FF0BE532B4FF06E534C3D6
:10039C0013F534E50F6401450E7005F50C750D0170
:0F03AC00E50F6406450E700674FFF50CF50D2283
:10050D00EF64014E7016E511151170021510C3E55B
:10051D0010648094805005E4F510F511EF64024EDF
:10052D007016E513151370021512C3E5126480944D
:09053D00805005E4F512F51322CB
:1004CE00EF64014E70190511E51170020510D394F9
:1004DE0005E510648094804006751000751105EFD7
:1004EE0064024E70190513E51370020512D39405BC
:0F04FE00E5126480948040067512007513052284
:10010100120003E5154514700FAF15AE141202FA73
:1001110075140075150180EB1205EFE5314530606E
:10012100030201A7E52F452E707C1203BB20B118F5
:100131007F147E0012060630B1FD7F147E00120688
:10014100067F017E0012050D20B0187F147E00127B
:10015100060630B0FD7F147E001206067F017E0088
:100161001204CE7590FFC2912094187F147E001264
:1001710006063094FD7F147E001206067F027E0083
:1001810012050D7590FFC2902094907F147E00128D
:1001910006063094FD7F147E001206067F027E0063
:1001A1001204CE02011CE53164014530700CC28C91
:1001B100C2A112048CD2A11205A2E52F6401452E21
:1001C1006003020104C28CC2A0D2A512044AD2A0CB
:0801D100C2A51205A2020104FF
:03000B00020546A5
:04054600C0E0C0D081
:10054A00758A18758CFC0509E50970020508C394BB
:10055A00F4E5089401400F30B10C30B00975080079
:06056A0075090012035C9C
:05057000D0D0D0E03204
:10060600EF1FAC0670011E4C600A7D027CEFDCFE1B
:04061600DDFC80EC9B
:01061A0022BD
:02057500AD07D0
:10057700E4FB7E007480A803088006CEA2E713CEB2
:1005870013D8F8FFEDF582EF558224FF92B4D2B667
:0A059700C2B60BBB08DCD2B5C2B53A
:0105A1002237
:05000300C2B6C2B522E7
:1005CD00AA07AF05120575AF02A80774800880024F
:1005DD00C313D8FCF4F5807F017E001206067580EA
:0205ED00FF22EB
:0300000002026E8B
:0C026E00787FE4F6D8FD7581390202B5F6
:10027A00020101E493A3F8E493A34003F68001F298
:10028A0008DFF48029E493A3F85407240CC8C33385
:10029A00C4540F4420C8834004F456800146F6DF54
:1002AA00E4800B0102040810204080900406E47EDA
:1002BA00019360BCA3FF543F30E509541FFEE49349
:1002CA00A360010ECF54C025E060A840B8E493A310
:1002DA00FAE493A3F8E493A3C8C582C8CAC583CA3B
:1002EA00F0A3C8C582C8CAC583CADFE9DEE780BEF3
:0104490000B2
:00000001FF
